:020000040800F2
:100000008023002015020008BD0B0008190B000812
:10001000B90B000821080008232600080000000092
:100020000000000000000000000000002120000887
:100030005D08000800000000A3020008A1210008DC
:100040002F0200082F0200082F0200082F020008CC
:100050002F0200082F0200082F0200082F020008BC
:100060002F0200082F0200082F0200082F020008AC
:100070002F0200082F0200082F0200082F0200089C
:100080002F0200082F0200082F0200082F0200088C
:100090002F0200082F0200082F0200082F0200087C
:1000A0002F0200082F0200082F0200082F0200086C
:1000B0002F0200082F0200082F0200082F0200085C
:1000C0002F0200082F0200082F0200082F0200084C
:1000D0002F0200081D220008BD220008412300084D
:1000E0002F0200082F0200082F0200082F0200082C
:1000F0002F0200082F0200082F0200082F0200081C
:100100002F0200082F0200082F0200082F0200080B
:100110002F0200082F0200082F0200082F020008FB
:100120002F0200082F0200082F0200082F020008EB
:1001300000F002F800F05FF80AA090E8000C82449A
:100140008344AAF10107DA4501D100F054F8AFF277
:10015000090EBAE80F0013F0010F18BFFB1A43F0A5
:100160000103184740380000603800000A444FF08F
:10017000000C10F8013B13F0070408BF10F8014B06
:100180001D1108BF10F8015B641E05D010F8016B4B
:10019000641E01F8016BF9D113F0080F1EBF10F8AF
:1001A000014BAD1C0C1B09D16D1E58BF01F801CBD2
:1001B000FAD505E014F8016B01F8016B6D1EF9D555
:1001C0009142D6D37047000000230024002500266A
:1001D000103A28BF78C1FBD8520728BF30C148BFAA
:1001E0000B607047642900F09D80002070471FB5A8
:1001F0001FBD10B510BD00F0E1FA1146FFF7F7FF83
:1002000002F082FC00F0FFFA03B4FFF7F2FF03BC38
:1002100002F010FA0948804709480047FEE7FEE768
:10022000FEE7FEE7FEE7FEE7FEE7FEE7FEE7FEE7A6
:1002300004480549054A064B70470000BD210008E7
:1002400031010008801D002080230020801F002035
:10025000801F0020EFF3108072B6704780F3108883
:100260007047204C204D25604FF0000484F309882E
:100270001E4C4FF0010525701D4C4FF08055256038
:1002800062B6FEE730B41A4C4FF08055256030BCA2
:10029000704730B4164C4FF08055256030BC704725
:1002A00000BF72B6EFF3098028B1203880E8F00F64
:1002B00010490968086000B50F4880475DF804EBF5
:1002C0000E480F490A7802700A480E490A6802600F
:1002D000106890E8F00F203080F309884EF0040E8B
:1002E00062B6704720ED00E00000FFFF92020020A0
:1002F00004ED00E098020020B511000887020020FC
:1003000088020020A0020020704700000FB40449BA
:1003100010B503AA029800F009FA10BC5DF814FBAE
:10032000080000202DE9F0410646002410687529D8
:10033000314616A510D0AFF30080002802DA404203
:1003400013A507E031688A0701D512A502E0490725
:1003500004D511A5012401E0AFF3008000210A2299
:1003600006F1240709E0B0FBF2FCB0FBF2F302FB5C
:100370001C00303078541846491C0028F3D123461D
:100380002A463046BDE8F04100F05EB900000000AA
:100390002D0000002B000000200000002DE9F05F80
:1003A000894604464FF0000ADFF874B1FB44C0F8F8
:1003B00020A02046E1688847002874D0252806D070
:1003C000D4E901219047206A401C2062F1E7002611
:1003D0005F462046E16888472028054607DB312D27
:1003E00005D2781910F8200C08B10643F1E7B007E0
:1003F00001D526F00406C4F81CA00027C4F818A0F4
:100400002A2D09D0284602F00EF938B304EB8708EC
:10041000303DC8F8185019E059F8041B204604EB89
:1004200087029161E1688847012F054618D1E0698C
:10043000002820DA26F020061DE0D8F8180000EB8E
:10044000800005EB40003038C8F818002046E1680D
:100450008847054602F0E7F80028EED1012F0AD0C0
:100460002E2D08D12046E16888477F1C0546022FC3
:1004700046F02006C4DBA069002803DA404246F0BB
:100480000106A061F00701D026F010066C2D0BD0FC
:10049000682D09D04C2D39D06A2D35D0742D35D02A
:1004A0007A2D33D016E038E0E1682F4620468847A1
:1004B000B842054609D16C2F26D04FF48060E16820
:1004C000064320468847054604E06C2F1AD04FF4B7
:1004D000807006430DB3A5F14100192802D82035DC
:1004E00046F400664A462946204626604E46FFF7F7
:1004F00079FE80B101280BD0F61D26F0070000F12F
:10050000080956E74020E4E78020D8E70020D6E736
:1005100006F104094DE7284652E7206ABDE8F09F3E
:10052000E0350000032A40F2308010F0030C00F0A8
:10053000158011F8013BBCF1020F624498BF11F81D
:1005400001CB00F8013B38BF11F8013BA2F10402D6
:1005500098BF00F801CB38BF00F8013B11F003034E
:1005600000F0F680083AC0F0088051F8043B083AE1
:1005700051F804CBA0E80810F5E7121D5CBF51F854
:10058000043B40F8043BAFF30080D20724BF11F8CE
:10059000013B11F801CB48BF11F8012B24BF00F833
:1005A000013B00F801CB48BF00F8012B70474FF02A
:1005B00000020429C0F0128010F0030C00F01B8030
:1005C000CCF1040CBCF1020F18BF00F8012BA8BF3E
:1005D00020F8022BA1EB0C0100F00DB85FEAC17C02
:1005E00024BF00F8012B00F8012B48BF00F8012BB5
:1005F00070474FF0000200B51346944696462039E6
:1006000022BFA0E80C50A0E80C50B1F12001BFF4CB
:10061000F7AF090728BFA0E80C5048BF0CC05DF831
:1006200004EB890028BF40F8042B08BF704748BF7F
:1006300020F8022B11F0804F18BF00F8012B7047F3
:1006400070477047704770472DE9F0470D4699464F
:100650009246044600F124080168880604D5E06942
:1006600021F01001216000E00120A84201DD471BBC
:1006700000E00027A1697A1902EB0900081AA061BD
:100680002078C00602D42046AFF30080002608E0A0
:10069000D4E901211AF806009047206A401C761C14
:1006A00020624E45F4DB2078C0060AD52046AFF321
:1006B000008006E0D4E9012130209047206A401CE8
:1006C0002062381EA7F10107F4DC07E0D4E901211C
:1006D00018F805009047206A401C2062281EA5F1EA
:1006E0000105F3DC2046AFF300802078000602D538
:1006F0000220BDE8F0870120FBE7000001694A1CE9
:1007000002610878704700B58FB0CDE90131002152
:10071000059105497944CDE9031011466846FFF774
:100720003DFE0FB000BD0000E5FFFFFF074B70B5B9
:100730000D467B44FFF7E7FF0446284600F03AF8F1
:1007400010B14FF0FF3070BD204670BD2B2300006C
:1007500010B5203AC0F00B80B1E81850203AA0E85C
:100760001850B1E81850A0E81850BFF4F5AF5FEA90
:10077000027C24BFB1E81850A0E8185044BF18C943
:1007800018C0BDE810405FEA827C24BF51F8043BEA
:1007900040F8043B08BF7047D20728BF31F8023B3E
:1007A00048BF11F8012B28BF20F8023B48BF00F8D2
:1007B000012B7047007B00F080007047754600F009
:1007C0002BF8AE4605006946534620F007008546E3
:1007D00018B020B5FFF72CFDBDE820404FF0000613
:1007E0004FF000074FF000084FF0000B21F0070119
:1007F000AC46ACE8C009ACE8C009ACE8C009ACE85C
:10080000C0098D46704710B50446AFF300802046FE
:10081000BDE81040FFF7F8BC00487047201D0020DD
:1008200000BFFEE770B502460B46FF24FF250021FE
:1008300000BF09E0565C86EA0400064E365C86EA94
:100840000504054E355C491C9942F3D345EA042062
:1008500070BD0000400000204001002070472DE9DD
:10086000F041024600250026002000230024002736
:1008700091F803C00CF00F0591F803C00CF0100CB8
:10088000BCF1000F03D091F802C04CEA050591F8C5
:1008900000C0BCF1000F31D0146800202BE04FF0F5
:1008A000010C0CFA00F3B1F800C00CEA03069E42FA
:1008B00020D183004FF00F0C0CFA03F7BC4305FA6C
:1008C00003FC4CEA040491F803C0BCF1280F06D1E4
:1008D0004FF0010C0CFA00FCC2F814C00AE091F8C9
:1008E00003C0BCF1480F05D14FF0010C0CFA00FC1D
:1008F000C2F810C0401C0828D1D31460B1F800C061
:10090000BCF1FF0F34DD546800202EE000F1080C2C
:100910004FF0010808FA0CF3B1F800C00CEA030626
:100920009E4221D183004FF00F0C0CFA03F7BC4319
:1009300005FA03FC4CEA040491F803C0BCF1280F4B
:1009400005D100F1080C08FA0CF8C2F8148091F8EF
:1009500003C0BCF1480F07D100F1080C4FF00108AB
:1009600008FA0CF8C2F81080401C0828CED3546056
:10097000BDE8F0810246002093680B400BB10120D6
:1009800000E000207047416170470161704700003E
:100990002DE9F04100240025012000F049F8064629
:1009A000022000F045F83418214610A0FFF7AEFCF5
:1009B00002F064F88069251A294611A0FFF7A6FC09
:1009C00002F05CF84769284602F004FF8046394689
:1009D00002F0B6FD064602F0C5FE054629460EA009
:1009E000FFF794FC2846BDE8F081000048583731F5
:1009F000315F427566666572203D2025640A0000FD
:100A00003131317765696768745F5368697775203C
:100A10003D2025640A00000032323277656967683C
:100A2000745F5368697775203D2025640A000000D3
:100A300070B50646012E31D13549086001F0A8FE97
:100A400000203449C1F88C01002400BF3048006800
:100A50000028FBD1002513E001202D4984310860D6
:100A6000640001F095FE00202A49C1F88C01284855
:100A7000006800B1641C012001F08AFE681CC5B248
:100A8000182DE9DB012022498431086084F4000438
:100A900001F07EFE00201F49C1F88C01022E35D1E5
:100AA00001201B490831086001F072FE002019493D
:100AB000C1F89401002400BF1548083000680028E0
:100AC000FAD1002514E0012011498C31086064003E
:100AD00001F05EFE00200F49C1F894010C48083077
:100AE000006800B1641C012001F052FE681CC5B210
:100AF000182DE8DB012006498C31086084F40004DD
:100B000001F046FE00200349C1F89401204670BD63
:100B1000080123420000234200BFFEE708B501217F
:100B2000402000F01FFF2820ADF8000010208DF8B5
:100B3000030003208DF8020069460B48FFF78FFE83
:100B40001420ADF8000048208DF8030069460648DF
:100B5000FFF785FE20210448FFF717FF0821024810
:100B6000FFF713FF08BD00000018014008B5012180
:100B7000482000F0F7FE2020ADF8000010208DF88E
:100B8000030003208DF8020069460948FFF767FE5D
:100B900020210748FFF7F9FE2020ADF80000694644
:100BA0000448FFF75CFE20210248FFF7EEFE08BD77
:100BB000000C01400018014000BFFEE77047000034
:100BC00070B5002100230F22C47804B3154C2468AB
:100BD00004F4E064C4F5E064210AC1F10403CA40EE
:100BE000447804FA03F184781440214309010E4C3F
:100BF0000678A155047804F01F050124AC4005785F
:100C00006D11AD0005F1E025C5F8004109E004785B
:100C100004F01F050124AC40044D0678761145F818
:100C2000264070BD0CED00E000E400E080E100E053
:100C300002490143024A1160704700000000FA05B2
:100C40000CED00E010B500F013F800F0EFFB00F041
:100C500017FC00F037FC00F0BFFB00F091FB00F048
:100C6000CBFC00F06FFC00F095FC00F002F810BD2A
:100C70007047704706480078012808D10548007879
:100C8000FF2804D203480078401C024908707047CE
:100C9000920200208502002010B500241A48007836
:100CA000012830D1FFF7D6FA04461848007820B161
:100CB00016480078401E1549087014480078F8B9A5
:100CC00013480078E0B900F0F9FC1248124909789D
:100CD00050F82100114908600F4800781049097840
:100CE00088420DD00D480068806B401C0B49096894
:100CF00088630C480068401C0A490860FFF7C9FA7D
:100D00002046FFF7ABFA10BD9202002085020020BA
:100D100086020020B817002088020020A0020020D0
:100D2000870200206C02002010B500240B480078D8
:100D3000012811D1FFF78EFA04460948007840B91E
:100D400008480078FF2804D206480078401C05496E
:100D500008702046FFF782FA10BD000092020020C2
:100D6000850200208602002010B500241348007878
:100D7000012821D1FFF76EFA044611480078C0B16E
:100D80000F480078401E0E4908700846007860B988
:100D90000C48007828B92046FFF760FA00F054FCB0
:100DA0000AE02046FFF75AFA06E02046FFF756FA17
:100DB00002E02046FFF752FA10BD00009202002028
:100DC000860200208502002010B50B48007890B9FB
:100DD00000F074FC0948007809490870094807497F
:100DE000097850F82100084908600846006807495A
:100DF0000860FFF736FA10BD92020020880200203A
:100E000087020020B8170020A002002098020020CE
:100E1000704700002DE9FE4F06460F4690461C46DF
:100E20004FF00009FFF716FA81461F48007828B1F5
:100E30004846FFF713FA3C20BDE8FE8F1B4850F8E8
:100E4000240060BB0120194941F824004846FFF7FF
:100E500005FA002342463946304600F009F9824639
:100E60000020009001900346024651460290204621
:100E700000F03AFC054635B90D48007801280CD140
:100E800000F0E2FB09E0FFF7E5F9814600200749A1
:100E900041F824004846FFF7E1F92846CCE74846E8
:100EA000FFF7DCF92820C7E785020020B8170020EB
:100EB000920200202DE9F04F85B081468A46934684
:100EC0001C46DDE90F78129D00200390FFF7C2F960
:100ED00003902348007830B10398FFF7BFF93C2016
:100EE00005B0BDE8F08F1F4850F8240088BB0120F2
:100EF0001C4941F824000398FFF7B0F92A464146FF
:100F0000384600F001FD2B465A465146484600F04F
:100F1000AFF804901198CDE9008002953A4620463A
:100F20000E9B049900F0E0FB064636B90E480078A7
:100F300001280CD100F088FB09E0FFF78BF9039042
:100F40000020084941F824000398FFF787F930464C
:100F5000C6E7FFE70398FFF781F92820C0E7000004
:100F600085020020B81700209202002070477047C9
:100F70002DE9F04106460F4614464FF0000815488B
:100F8000007818B112202070BDE8F081FFF762F9F7
:100F90008046FF2E03D11048006890F832600F4859
:100FA00050F826502DB94046FFF758F943202070DD
:100FB000EAE7012D05D14046FFF750F943202070A4
:100FC000E2E7EF644046FFF749F90020207000BFD8
:100FD000DAE700008502002098020020B817002000
:100FE000704700002DE9F04707460D464FF0000A14
:100FF000002028606860FFF72DF98246FF2F03D19B
:101000001948006890F83270184850F827402CB9F9
:101010005046FFF723F94320BDE8F087012C04D1A7
:101020005046FFF71BF94320F6E7207C00F0010053
:1010300020B95046FFF712F94520EDE70026D4F815
:101040000C90D4F808805046FFF708F900E0761CB1
:1010500058F8041B0029FAD0B0002860A9EB06005C
:10106000800068600020D7E798020020B8170020B1
:1010700070B5044610464FF080750560051F284680
:101080002C606FF00106051F28462E604FF01236C7
:10109000051F28462E604FF00336051F28462E6098
:1010A0004FF00236051F28462E607610051F284691
:1010B0002E60051F284629604FF01136051F28466F
:1010C0002E604FF01036051F28462E604FF009366F
:1010D000051F28462E604FF00836051F28462E6053
:1010E0004FF00736051F28462E604FF00636051FC5
:1010F00028462E604FF00536051F28462E604FF01B
:101100000436051F28462E6070BD00002DE9F04111
:1011100005464FF00008FFF79DF88046FF2D05D1EA
:101120002048006890F83250012608E01D48006809
:1011300090F83200A84201D1012600E000261A48AA
:1011400050F825402CB94046FFF788F84820BDE804
:10115000F081012C04D14046FFF780F84320F6E7E8
:1011600094F834701148C05D94F8351088430F49E5
:10117000C8550846C05D30B994F836100C48007860
:1011800088430B49087094F8300040F0080084F858
:1011900030004046FFF762F8012E01D100F054FA0A
:1011A0000020D4E798020020B81700208A0200200F
:1011B000890200207047000070B5054600261748D8
:1011C000007800B170BD1648007800B1FAE71DB391
:1011D000FFF740F806461348006890F8344012487C
:1011E000005D1049096891F8351088430E4908558B
:1011F0000846005D40B90B48006890F836100B486F
:10120000007888430949087006480068C56230467E
:10121000FFF724F800F018FA00BFD3E7850200209A
:1012200086020020980200208A0200208902002005
:101230002DE9F04104460D4616461F461248007837
:1012400010B15520BDE8F0811048007808B1322077
:10125000F8E7B81CC82148434FF47A71B0FBF1F1AC
:101260004FF461606043C5EB051200EB820030442F
:1012700000EBC00202EB001001EBC0084046FFF794
:101280009BFF0020DEE70000850200208602002090
:1012900070B5002600F072F8FEF7DCFF0646314814
:1012A0000068401C2F4908603046FEF7D7FF2E48E3
:1012B0000078012853D12D48007820B1012804D0AE
:1012C000022809D103E001250BE0002509E00125F2
:1012D00001202649087004E00125002023490870F8
:1012E00000BF00BF05B970BD2148046833E0FEF7B8
:1012F000B1FF0646E06A50B3E06A401EE062E06A71
:1013000028BB94F8300000F0370040B114F8300FDB
:1013100000F0C800207001206070303C02E0002026
:1013200084F8310094F8300000F0080078B93434C3
:10133000A0781049097808430E49087020780E49B2
:10134000085C6178084314F834190B4A50546469F6
:101350003046FEF783FF94F832003F28C7D100BF24
:10136000C1E70000B002002092020020A802002085
:10137000A4020020890200208A0200207047000099
:101380002DE9F0415021114800F02CF900250DE025
:10139000681C86B20D4800EB051400EB0617002010
:1013A000207067600AA0E060681C85B2042DEFD34E
:1013B000064800EB051400202070606004A0E06087
:1013C000024804490860BDE8F0810000681300206D
:1013D0003F0000007402002070B5C821114800F0E1
:1013E00001F900230FE0581C85B203EB83000D497F
:1013F00001EB800405EB850001EB800600202070E6
:101400006660581C83B2092BEDD303EB83000549BA
:1014100001EB8004002020706060084602490860EB
:1014200070BD0000A01200207002002000200A49B8
:1014300008600A4908700A4908700A4908700A4990
:1014400008700A4908600A4908600A4908600A49A0
:1014500008600A4908707047B00200208502002029
:101460008602002093020020920200206C020020DD
:1014700094020020800200207C02002084020020D0
:1014800000210A4A1170002004E00021084A11548A
:10149000411CC8B20828F8D30021064A1170064A38
:1014A0001170064A1160064A1160704789020020D7
:1014B0008A0200208702002088020020A00200206B
:1014C0009802002070B54FF47C71194800F08AF83A
:1014D0004FF48071174800F085F8002413E0601C79
:1014E000C5B2C4EBC40000EB4000114901EB80031E
:1014F000C5EBC50000EB400001EB80065E610EA06D
:10150000D864601CC4B20B2CE9D3C4EBC40000EB5C
:101510004000074901EB80030020586106A0D86411
:1015200000200649086002480549086070BD0000B7
:10153000B8180020B81700203F000000A4020020C7
:101540009C02002000B587B00320002180220A4BB6
:10155000CDE90132CDE903104FF6FF703F23074A72
:1015600000900748FFF7A6FC06AA06A13F20FFF758
:10157000FFFC07B000BD0000B8150020B417002024
:101580001D18000875432F4F532D49492049646C9D
:101590006500000000B587B00320002180220A4BBF
:1015A000CDE90132CDE903104FF6FE703E23074A24
:1015B00000900748FFF77EFC06AA06A13E20FFF731
:1015C000D7FC07B000BD0000B8130020B415002000
:1015D0004518000875432F4F532D49492053746116
:1015E0007400000004E0002200F8012B4A1E91B2B2
:1015F0000029F8D1704700002DE9F041782110480A
:10160000FFF7F0FF00240DE0601C86B204EB4400FD
:101610000B4901EBC00506EB460001EBC0072F604C
:10162000601C84B2042CEFD304EB4400044901EBAA
:10163000C00500202860084602490860BDE8F08126
:10164000A81C0020AC02002010B50024FEF702FE0A
:10165000044613480078F8B912480078E0B900F061
:101660002DF811481149097850F8210010490860F7
:101670000E4800780F49097888420DD00C48006860
:10168000806B401C0A49096888630B480068401C4D
:1016900009490860FEF7F6FD2046FEF7DFFD10BDA4
:1016A0008502002086020020B81700208802002052
:1016B000A0020020870200206C0200200649074A91
:1016C0001278885C0649095C034A515C01EBC00151
:1016D000044A117070470000903800088902002009
:1016E0008A020020880200202DE9F84F05460F46A7
:1016F00090469946DDE90AAB00200090FEF7AAFD6E
:1017000000903F480468002C74D0183454F8040C3E
:101710003B4908600098FEF7A1FD44F8187CA576C7
:10172000002020766076606144F814BC44F80CAC6C
:1017300044F8108C0C9824F8080C24F8069C00201F
:10174000E077E810207705F00700E076217F0120A0
:101750008840A077E17E01208840607700206060AB
:10176000E060A0602062A0626062E062206325A069
:101770006063183C002606E0002104F1500040F8A8
:101780002610701CC6B2002EF6D02046FFF740FB94
:101790002046FFF7EBFBFEF75DFD00901A4840F88E
:1017A00025401A48006860610020A0611748006861
:1017B00010B1164800688461144804603434A0787D
:1017C0001349097808431249087020781149085CC8
:1017D0006178084314F834190E4A50540E480078C2
:1017E000401C0D4908700098FEF738FD0020BDE848
:1017F000F88FFFE70098FEF731FD4220F7E7000081
:101800009C0200203F000000B8170020A402002026
:10181000890200208A02002093020020002400BFD9
:1018200000BFFEF717FD044605480068401C044948
:1018300008602046FEF712FDFFF799FBF1E7000074
:1018400094020020002400BF02E02820FFF7B4FC2F
:10185000194800780028F8D0184800686421B0FBC7
:10186000F1F0164908600846006828B900201449BC
:101870000870FF20FFF74AFC00BFFEF7EBFC0446B0
:10188000104800681049086000200E490860204692
:10189000FEF7E4FC0C48006808490968B0FBF1F069
:1018A000C0F1640006490870FFF79AFB00F00EF8DB
:1018B0001420FFF781FCE0E7840200207C02002076
:1018C0007802002094020020800200207CB50025D0
:1018D00014E069462846FFF785FB064666B90948C5
:1018E00050F8254044B1012C06D0D4E9020100EBA8
:1018F000810060640198A064681CC5B23F2DE8D9DE
:101900007CBD0000B817002002F0010343B102F0D3
:1019100002032BB102E0491E002308C00029FAD1BE
:101920007047000029B1064AD2690243044BDA61CC
:1019300004E0034AD2698243014BDA617047000038
:101940000010024029B1064A12690243044B1A6191
:1019500004E0034A12698243014B1A617047000098
:101960000010024029B1064A92690243044B9A6171
:1019700004E0034A92698243014B9A617047000078
:101980000010024029B1064AD2680243044BDA60D3
:1019900004E0034AD2688243014BDA6070470000DA
:1019A0000010024030B500210022002400232D4DFC
:1019B0006D6805F00C0121B1042905D0082923D157
:1019C00005E0294D056022E0274D05601FE0254D0B
:1019D0006D6805F47012234D6D6805F4803402259E
:1019E00005EB92421CB9214D554305600BE01D4D9E
:1019F0006D6805F400351DB11C4D5543056002E0CE
:101A0000194D5543056002E0174D056000BF00BF4A
:101A1000144D6D6805F0F0010909154D6B5C056802
:101A2000DD4045600F4D6D6805F4E061090A104D19
:101A30006B5C4568DD4085600A4D6D6805F460515A
:101A4000C90A0B4D6B5C4568DD40C560054D6D688E
:101A500005F44041890B074D6B5CC568B5FBF3F598
:101A6000056130BD0010024000127A0000093D00FF
:101A7000580200206802002070B505460E4602217B
:101A80000F48FEF782FF00240CE000BF40210D4804
:101A900000F0F6FC0028F9D0295D0A4800F0BDFDF1
:101AA000601CC4B2B442F0DB00BF4021054800F026
:101AB000E7FC0028F9D002210148FEF764FF70BD61
:101AC000000801400044004021B1028842F0400279
:101AD000028004E002884FF6BF731A40028070470C
:101AE00070B505460C46164610211048FEF74BFF10
:101AF000032000F0C3F9C4F3074000F0BFF9C4F3BA
:101B0000072000F0BBF9E0B200F0B8F904E0FF20D4
:101B100000F0B4F928706D1C301EA6F101018EB2E0
:101B2000F5D110210148FEF730FF70BD00080140DB
:101B30002DE9F05F07460E4614464FF00008C146F7
:101B4000C2460025AB4606F0FF0ACAF10000C5B246
:101B50002046E11704EB1161C1F30728E11704EBFC
:101B600011610912A4EB012101F0FF09BAF1000F84
:101B700020D1B8F1000F05D122463146384600F099
:101B8000C7F864E009E04FF480723146384600F04F
:101B9000BFF806F5807607F58077B8F10000A8F168
:101BA000010101F0FF08EED14A463146384600F007
:101BB000AFF84CE0B8F1000F18D1A94510DDA9EB42
:101BC000050000F0FF0B2A463146384600F0A0F829
:101BD0002E442F445A463146384600F099F836E0F4
:101BE00022463146384600F093F830E0601B84B25C
:101BF0002046E11704EB1161C1F30728E11704EB5C
:101C000011610912A4EB012101F0FF092A463146B6
:101C1000384600F07DF82E442F4409E04FF48072DE
:101C20003146384600F074F806F5807607F580777F
:101C3000B8F10000A8F1010101F0FF08EED1B9F1FF
:101C4000000F04D04A463146384600F061F8BDE83E
:101C5000F09F000000B587B001210803FFF782FE66
:101C60000121C420FFF77EFE1020ADF80400032000
:101C70008DF8060010208DF8070001A92248FEF714
:101C8000EEFD2020ADF8040018208DF8070001A912
:101C90001D48FEF7E4FD4020ADF8040001A91A48F4
:101CA000FEF7DDFD8020ADF8040001A91648FEF71F
:101CB000D6FD10211448FEF768FE0020ADF808009C
:101CC0004FF48270ADF80A000020ADF80C0002203D
:101CD000ADF80E000120ADF810004002ADF8120082
:101CE0000820ADF814000020ADF816000720ADF86C
:101CF000180002A9054800F055F901210348FFF733
:101D0000E3FE07B000BD00000008014000300140C4
:101D100070B505460C46164600F006F91021154828
:101D2000FEF731FE022000F0A9F8C4F3074000F0EE
:101D3000A5F8C4F3072000F0A1F8E0B200F09EF887
:101D4000B6F5807F04DD4FF480760BA0FEF7DEFA57
:101D500003E0287800F092F86D1C301EA6F1010116
:101D60008EB2F6D110210348FEF70FFE00F0C2F844
:101D700070BD0000000801403C3C2D464C415348DA
:101D80002D4552524F522D3E3E205350495F464CF6
:101D90004153485F50616765577269746520746F7D
:101DA0006F206C61726765210A00000010B5002485
:101DB00010210C48FEF7E7FDAB2000F05FF8FF2094
:101DC00000F05CF8FF2000F059F8FF2000F056F812
:101DD000FF2000F053F8044610210248FEF7D5FD1D
:101DE000204610BD000801402DE9F04100240025E7
:101DF0000026002710210F48FEF7C5FD9F2000F0A8
:101E00003DF8FF2000F03AF80546FF2000F036F8D4
:101E10000646FF2000F032F8074610210548FEF77D
:101E2000B4FD280440EA062040EA07042046BDE845
:101E3000F08100000008014010B5044600F074F87D
:101E400000F058F810210C48FEF79DFD202000F00E
:101E500015F8C4F3074000F011F8C4F3072000F0B0
:101E60000DF8E0B200F00AF810210348FEF78DFDEE
:101E700000F040F810BD00000008014010B5044615
:101E80004FF48050194908600AE018490868411E5B
:101E9000164A116020B9002000F0A2F8C0B210BDAF
:101EA0000221134800F070F80028EED021461048B7
:101EB00000F076F84FF480500C4908600AE00B49B6
:101EC0000868411E094A116020B9012000F088F815
:101ED000C0B2E4E70121064800F056F80028EED031
:101EE000034800F05AF8C0B2D9E700001000002003
:101EF0000030014010B5002410210A48FEF743FDD0
:101F00000520FFF7BBFF00BFFF20FFF7B7FF044628
:101F100004F001000028F7D110210248FEF735FD3A
:101F200010BD00000008014010B510210548FEF763
:101F30002AFD0620FFF7A2FF10210248FEF725FD2B
:101F400010BD00000008014010B510210548FEF743
:101F50001AFDB920FFF792FF10210248FEF715FD88
:101F600010BD00000008014010B510210548FEF723
:101F70000AFDAB20FFF782FF10210248FEF705FDA6
:101F800010BD0000000801400246002013890B40EC
:101F90000BB1012000E0002070470146888970479E
:101FA0008181704710B50022028802F441520B88EB
:101FB0004C8823438C882343CC8823430C892343B8
:101FC0004C8923438C892343CC8923431A430280C1
:101FD000838B4FF2FF74234083830B8A038210BDEF
:101FE00010B50446214602A0FEF790F9002010BD6E
:101FF0003C3C2D464C4153482D4552524F522D3EAC
:102000003E2053504920B5C8B4FDB3ACCAB12165D8
:1020100072726F72436F6465203D2025640A000070
:102020007047F0B585B004460D4616461F4614218C
:102030006846FEF7DEFA5A208DF80000A5208DF8DC
:10204000010000F01BFD007F8DF8020004208DF8D8
:10205000030000208DF804008DF805408DF806502F
:102060008DF807608DF8087009216846FEF7DAFBE5
:10207000C0B28DF8090009216846FEF7D3FB000ABB
:102080008DF80A000B216846FFF7F6FC05B0F0BD9D
:1020900010B500F001F810BD0CB5002001900090C3
:1020A0003348006840F480303149086000BF304850
:1020B000006800F4003000900198401C01900098E6
:1020C00018B90198B0F5A06FF1D12948006800F463
:1020D000003010B10120009001E000200090009835
:1020E000012843D12348006840F0100021490860CE
:1020F0000846006820F0030008600846006840F0C9
:10210000020008601A48406819494860084640685B
:1021100048600846406840F480604860084640686F
:1021200020F47C1048600846406840F4E81048609D
:102130000846006840F08070086000BF0C480068E6
:1021400000F000700028F9D00948406820F0030032
:10215000074948600846406840F00200486000BFF8
:102160000348406800F00C000828F9D10CBD0000BD
:102170000010024000200240042808D14FF0E02166
:10218000096941F004014FF0E022116107E04FF0CE
:10219000E021096921F004014FF0E022116170474C
:1021A00010B505480078012805D1FEF763FDFFF75B
:1021B0006FF8FEF771FD10BD9202002010B51348B4
:1021C000006840F001001149086008464068104965
:1021D00008400E494860084600680E4908400B490F
:1021E00008600846006820F48020086008464068BF
:1021F00020F4FE0048604FF41F008860FFF748FF9E
:102200004FF000600449086010BD0000001002405B
:102210000000FFF8FFFFF6FE08ED00E070B5FEF7E6
:1022200029FD40F22551214800F037F998B11F48A7
:1022300000F0EEF9C4B21E480088B0F5007F0ADA5B
:102240001B480088C0F30D001A490C541848008838
:10225000401C1749088040F22441144800F01DF941
:1022600000B312480088C4B21048001D0088C4B2F0
:1022700000BF00F045FC451C0D4802880D4928466A
:10228000FEF750F900200A4908804FF40071094810
:10229000FEF78DF940F22441044800F087F8012050
:1022A00005490870FEF7F8FC70BD000000380140D9
:1022B00000000020E0090020E00B002010B5FEF730
:1022C000D9FC40F225511B4800F0E7F890B11948BD
:1022D00000F09EF9C4B218480088FF280ADC1648AE
:1022E0000088C0F30D0015490C5413480088401CA9
:1022F0001149088040F224410E4800F0CEF8B0B1F8
:102300000C4800880B48001D00880B4801780B48DA
:1023100000F016FE0020084908804FF4807107483D
:10232000FEF745F940F22441024800F03FF8FEF77D
:10233000B3FC10BD0044004004000020E10D00206B
:1023400010B540F22551164800F0A7F898B114488E
:1023500000F05EF9C4B213480088B0F5007F0ADAD5
:1023600010480088C0F30D000F490C540D48008838
:10237000401C0C49088040F22441094800F08DF8C7
:1023800060B1074800880648001D00880020054904
:1023900008804FF400710448FEF709F910BD0000F1
:1023A000004800400C000020A90F002010B50022BA
:1023B000002340F66A14A14200D100BF0A12012492
:1023C0009440A3B2DC43048010BD21B1828942F461
:1023D0000052828104E082894DF6FF731A408281A7
:1023E0007047000010B504462048844209D10121FD
:1023F0008803FFF7C7FA00214FF48040FFF7C2FAC5
:1024000032E01B48844209D101214804FFF79AFABF
:1024100000214FF40030FFF795FA25E0154884427B
:1024200009D101218804FFF78DFA00214FF48020A3
:10243000FFF788FA18E01048844209D10121C80446
:10244000FFF780FA00214FF40020FFF77BFA0BE042
:102450000A48844208D101210805FFF773FA0021D8
:102460004FF48010FFF76EFA10BD000000380140F5
:102470000044004000480040004C00400050004034
:1024800002460020B1F5007F00D100BF13880B4049
:102490000BB1012000E00020704770B50246002417
:1024A00000230025002040F66A16B14200D100BF8B
:1024B000C1F3421501F01F03012606FA03F3012DB3
:1024C00002D19689334006E0022D02D1168A3340AC
:1024D00001E0968A33400C12012606FA04F41688AD
:1024E000344013B10CB1012000E0002070BDF0B504
:1024F0000346002400260025002040F66A17B94252
:1025000000D100BF1846C1F3421401F01F06012795
:1025100007FA06F5012C01D10C3004E0022C01D1A0
:10252000103000E014301AB107682F43076002E052
:102530000768AF430760F0BD2DE9F04786B0054658
:102540000E460024A24600BFA1460027B08900B174
:1025500000BF2F462C8A4CF6FF700440F0880443DD
:102560002C82AC894EF6F3100440B08831890843C0
:10257000718908430443AC81AC8A4FF6FF400440A4
:10258000B0890443AC8201A8FFF70CFA1F488742C8
:1025900002D1DDF810A001E0DDF80CA0A88900F45C
:1025A000004040B10AEBCA0000EB0A103168490054
:1025B000B0FBF1F807E00AEBCA0000EB0A10316843
:1025C0008900B0FBF1F86420B8FBF0F004012009A9
:1025D000642101FB1089A88900F4004040B1322039
:1025E00000EBC900B0FBF1F000F00700044308E085
:1025F000322000EB09106421B0FBF1F000F00F0075
:1026000004432C8106B0BDE8F0870000003801408B
:1026100001468888C0F308007047C1F30802828031
:10262000704700BFFEE730380A2801D2012070470A
:102630000020704700BF704710B54FF40061044898
:10264000FEF7A3F94FF480610148FEF79CF910BD35
:10265000001401402DE9F041044688462578302DCC
:1026600006D0312D12D0332D19D0352D38D12AE096
:102670006678342E09D1A778012F05D11AA0FDF76D
:1026800045FE00201C4948772AE029E06678322E72
:1026900004D11AA0FDF73AFE00F05DFD20E000260F
:1026A0006678012E0ED10027AA2301223421302082
:1026B000FFF7B7FCA77815A0FDF728FE384600F015
:1026C0004DFA00BF0CE014A0FDF720FE601C00F0E6
:1026D0007DFCAA23012235213020FFF7A2FC00BF98
:1026E00000BFBDE8F0810000CAC2BCFECDA8D3A6E1
:1026F000D3A6B4F00A00000074120020CAB5CAB113
:10270000CAFDBEDDB2E9D1AF0A000000BFD8D6C60F
:10271000D6B8C1EE0A000000B2CECAFDC9E8D6C3E1
:102720000000000010B56FF00400FFF725FD104811
:1027300000681049B0FBF1F00F4908700C480068C0
:102740000C49B0FBF1F441F28830444305200B49B9
:1027500008804FF0E020006940F002004FF0E021D7
:10276000086108464461006940F00100086110BD3D
:102770004402002000127A004002002042020020A1
:1027800010B5FEF7D1FA10BD10B5FEF7EDFA10BD89
:102790002DE9F047074600264FF0E020D0F81490CE
:1027A0001148007807FB00F800BFFFF7E9FF4FF082
:1027B000E020856911E04FF0E0208469AC420CD044
:1027C000AC4202D2281B064403E0A9EB04002844D3
:1027D00006442546464500D300E0ECE700BFFFF77E
:1027E000D3FFBDE8F08700004002002051E0022145
:1027F0002848FEF7BFF820BB00F040F9407800B34E
:102800004FF480612448FEF7C0F84FF4006122487D
:10281000FEF7BBF8002021494870FEF7B9F81F49C0
:10282000C86000F02BF9C46800F028F98068201A0D
:102830001A49086100F040F900F040FC01201749F6
:10284000487700F01BF9407F18B300241BE000F02C
:1028500015F9407F00B91BE000F010F9007F401E21
:10286000A04208D100F00AF9407F20B100200B49B6
:10287000487700F023FC0023012219461846FEF792
:10288000D7FC601CC4B200F0F9F8007FA042DEDC87
:1028900000BFACE70020014000140140741200208A
:1028A0003EB500240020009001900290FFF77EFAD0
:1028B000274908604FF4FA73002211461046FEF7CC
:1028C000B7FCFFF791FA23490860084600682249DF
:1028D00088423AD1012200212048FFF701F91F4820
:1028E0000078CD282CD10C224FF400716846FFF7F8
:1028F000F7F8009800F056FF19494861019800B2B6
:102900004880029C17A00099FDF700FD1AA00199CC
:10291000FDF7FCFC1DA00299FDF7F8FC00F0B2F8F1
:10292000251A002D01DB284600E06842642802DBFE
:102930000B48846109E000F0A5F80949886104E0CA
:1029400000F032F816A0FDF7E1FCFFF7FDFA3EBDFE
:10295000380000203C0000201640EF003500002029
:10296000741200207265616420627566665B305D7A
:10297000203D2025640A000072656164206275664E
:10298000665B315D203D2025640A0000726561644C
:1029900020627566665B325D203D2025640A00007A
:1029A00077726974650A00003EB5002000900190BE
:1029B000029000F063F84469204600F0B7FE0090F2
:1029C00000F05CF8B0F90200019000F057F880695F
:1029D000029013A00099FDF799FC16A00199FDF74C
:1029E00095FC19A00299FDF791FCFFF7BDFACD20E7
:1029F0001A4908700020FFF71FFA0122002117482A
:102A0000FFF796F80C224FF400716846FFF790F834
:102A10006423002211461046FEF70AFC3EBD00006A
:102A2000777269746520627566665B305D203D2053
:102A300025640A00777269746520627566665B3189
:102A40005D203D2025640A007772697465206275F7
:102A500066665B325D203D2025640A00350000205B
:102A600000BF054A128802F04002002AF9D0C2B223
:102A7000014B1B1D1A8070470048004000487047FA
:102A80007412002070B500240120FDF7D1FF054627
:102A90000220FDF7CDFF2C18214602A0FDF736FCE1
:102AA000204670BD7765696768745F4D616F7069B6
:102AB000203D2025640A000010B501210B48FDF7D8
:102AC00059FF88B94FF4FA73022200210846FEF735
:102AD000AFFB01210548FDF74DFF28B904A0FDF724
:102AE00015FC01200549087110BD000000200140BF
:102AF000D2D1BEADC2FAD2E70A00000074120020A3
:102B000000487047E00B002010B54FF4A060FEF7BE
:102B10008FF8FFF707FEFEF729F8FFF79BF8FDF7A0
:102B2000FDFF4FF4E13000F09FFB4FF4E13000F087
:102B3000FFFB4FF4E13000F063FCFEF783F8042361
:102B4000044A00210448FEF765F9FEF73DF900202C
:102B500010BD00004C040020F531000810B50446FB
:102B60007CB1FFF78BFF407840B90FA0FDF7CEFB9B
:102B700000F03CF801201049087002E00FA0FDF7BA
:102B8000C5FB7CB9FFF77AFF407840B10FA0FDF795
:102B9000BDFBFFF751FD00200749087002E00FA0C0
:102BA000FDF7B4FB10BD0000B9F1C3C5D5FDD4DA03
:102BB000B4F2BFAA0A00000074120020B9F1C3C524
:102BC000D2D1BEADB4F2BFAA0A000000B9F1C3C5AC
:102BD000D5FDD4DAB1D5BACF0A000000B9F1C3C52A
:102BE000D2D1BEADB9D8B1D50A00000010B5FDF7FD
:102BF000CFFE0F4988600120487081020D48FDF723
:102C0000C4FE4FF400610B48FDF7BDFE0023072210
:102C100019461846FEF70CFB4FF480610548FDF796
:102C2000B4FE4FF400610348FDF7AFFE10BD000095
:102C300074120020001401400020094988600870C7
:102C4000487007204880002008718860C8600861CB
:102C50000448486104488861002008774877704735
:102C6000741200200000DC42220B080138B5002459
:102C700001214FF49A70FEF775FE4FF41060ADF825
:102C8000000004208DF8030003208DF8020069463F
:102C90005748FDF7E4FD4020ADF8000004208DF812
:102CA000030003208DF8020069465248FDF7D7FD66
:102CB0000120ADF8000004208DF8030003208DF8FA
:102CC000020069464C48FDF7CAFD0220ADF800003D
:102CD00004208DF8030003208DF802006946464861
:102CE000FDF7BDFD4FF44060ADF8000010208DF8F9
:102CF000030003208DF8020069464048FDF7AFFD50
:102D00004FF480613D48FDF740FE4FF400613B48C1
:102D1000FDF73BFE02213848FDF72CFEE0B14FF4F1
:102D200080613648FDF731FE4FF400613348FDF70E
:102D30002AFE0FE002213048FDF71CFE50B94FF487
:102D400080612E48FDF721FE4FF400612B48FDF70E
:102D50001CFE00E0EEE700BF4FF400612448FDF7E1
:102D600009FE04466006040E4FF480712048FDF70A
:102D700001FE04436006040E40211E48FDF7FAFDE3
:102D800004431F480477017F1EA0FDF7BFFA4FF4EC
:102D900080711748FDF7EEFD054629461DA0FDF799
:102DA000B5FA4FF400611248FDF7E4FD05462946E7
:102DB0001AA0FDF7ABFA40210E48FDF7DBFD0546F2
:102DC000294619A0FDF7A2FA01210B48FDF7D2FD13
:102DD0000546294616A0FDF799FA02210648FDF797
:102DE000C9FD0546294614A0FDF790FA38BD00003C
:102DF0000008014000100140002001400014014083
:102E000074120020736C61766541646472203D2009
:102E100025640A00412D383D25640A00412D3131D9
:102E20003D25640A00000000432D363D25640A005C
:102E3000472D303D25640A00472D313D25640A00A9
:102E400056E0FFF71BFE4078F0B1002415E0FFF7D5
:102E500015FE007800B916E0FFF710FEB0F9020089
:102E6000401EA04201D1FFF7E7FB002301221946D3
:102E70001846FEF7DDF9601CC4B2FFF7FFFDB0F99C
:102E80000200A042E3DC00BF1A48017F1AA0FDF750
:102E90003DFA4FF480711C48FDF76CFD0446214655
:102EA0001AA0FDF733FA4FF400611748FDF762FDF1
:102EB0000446214617A0FDF729FA40211848FDF7DE
:102EC00059FD0446214617A0FDF720FA01211748B5
:102ED000FDF750FD0446214615A0FDF717FA022123
:102EE0001248FDF747FD0446214613A0FDF70EFAF0
:102EF000A7E7000074120020736C6176654164647A
:102F000072203D2025640A0000080140412D383D13
:102F100025640A00412D31313D25640A000000007E
:102F200000100140432D363D25640A000020014079
:102F3000472D303D25640A00472D313D25640A00A8
:102F40002DE9F05F05460F460026FFF797FD90F844
:102F50001C90B046B246B346002400BF31E0285D65
:102F60005A282CD1601C285CA52828D1A01C285CDC
:102F7000484503D0A01C285CFF2820D1E01C295C18
:102F8000201D285C01EB0020C6B22819711DFDF739
:102F900049FC8046A019401D15F800A0A019801D0D
:102FA00015F800B008F0FF00504508D1C8F307201D
:102FB000834504D1611D68183146FFF74BFB601C47
:102FC000C4B2BC42CBDBBDE8F09F00002DE9FC4160
:102FD00004460020009001902178607801EB0021E8
:102FE000A07801EB0041E07801EB006000902179CE
:102FF000607901EB00200190FFF740FD45690098E2
:1030000000F0D0FB0646294600F05CFB06D1FFF736
:1030100035FDB0F902000199884221D0009800F0F6
:10302000C1FB12494861019800B24880FFF7BCFC1F
:103030000FA0FDF76BF9FFF721FD4569284600F069
:1030400047FA064632460B4610A0FDF75FF9FFF738
:1030500015FDB0F90250294610A0FDF757F902E01E
:1030600012A0FDF753F9BDE8FC81000074120020A6
:1030700009B2CECAFDD0DEB8C4B3C9B9A6B2A2B4F3
:10308000E6C8EB464C415348A65C0A00636F727277
:103090006563744675723D25640A000074696D6548
:1030A000436F6E743D25640A00000000B2CECAFD75
:1030B000CEDEB7A8D0DEB8C40A00000000B599B0D3
:1030C00064216846FDF795FA5A208DF80000A52086
:1030D0008DF80100FFF7D2FC007F8DF80200072079
:1030E0008DF8030000208DF8040034208DF80500D1
:1030F00001208DF80600FFF7C1FC00798DF807006C
:10310000FFF7BCFC007C8DF80800FFF7B7FC008AD5
:10311000000A8DF80900FFF7B1FC0069000C8DF87A
:103120000A00FFF7ABFC0069000E8DF80B000C21C4
:103130006846FDF777FBC0B28DF80C000C2168469D
:10314000FDF770FB000A8DF80D000E216846FEF7B2
:1031500093FC19B000BD00B599B064216846FDF735
:1031600048FA5A208DF80000A5208DF80100FFF7DD
:1031700085FC007F8DF8020007208DF803000020F9
:103180008DF8040032208DF80500FFF777FC0078F9
:103190008DF80600FFF772FC007B8DF80700FFF743
:1031A0006DFC8089000A8DF80800FFF767FCC06895
:1031B000000C8DF80900FFF761FCC068000E8DF867
:1031C0000A00FFF75BFC00798DF80B000C216846C4
:1031D000FDF728FBC0B28DF80C000C216846FDF706
:1031E00021FB000A8DF80D000E216846FEF744FC15
:1031F00019B000BD70B50446002500BF13A0FDF74F
:1032000085F8FFF719FDFFF731FD64230022114611
:103210001046FEF70DF8FFF743FBFFF733FCFDF711
:1032200019F8054605230C4A00210C48FDF7F2FD6C
:1032300008230B4A00210B48FDF7ECFD0420FDF7A5
:1032400065FF2846FDF70AF870BD000073746172CF
:10325000745F7461736B0A004C080020412E0008F3
:10326000DC090020ED27000810B586B004460121D6
:1032700044F20400FEF776FB4FF40070ADF8140042
:1032800003208DF8160018208DF8170005A9244892
:10329000FDF7E5FA4FF48060ADF8140004208DF8D6
:1032A000170005A91E48FDF7DAFA25208DF8000061
:1032B00003208DF801008DF8020001208DF8030035
:1032C0006846FDF77DFC01940020ADF80800ADF8DC
:1032D0000A00ADF80C00ADF810000C20ADF80E009F
:1032E00001A91048FFF728F9012240F225510D48A5
:1032F000FFF7FDF8012240F224410A48FFF7F7F8F2
:1033000001210848FFF761F84FF400710648FDF706
:103310004EF940F201210548FDF749F906B010BD0C
:103320000008014000380140E0090020E00B0020C7
:1033300010B586B0044601212420FEF713FB0121BD
:103340004804FEF7EFFA2C48FFF74CF80220ADF8DE
:10335000140010208DF8170003208DF8160005A921
:103360002648FDF77CFA0420ADF8140003208DF800
:10337000160018208DF8170005A92048FDF76FFAF0
:103380000820ADF8140004208DF8170005A91B488B
:10339000FDF765FA26208DF8000003208DF8010066
:1033A0008DF8020001208DF803006846FDF708FC47
:1033B00001940020ADF80800ADF80A00ADF80C004B
:1033C000ADF810000C20ADF80E0001A90A48FFF777
:1033D000B3F8012240F225510748FFF788F801228F
:1033E00040F224410448FFF782F801210248FEF729
:1033F000ECFF06B010BD0000004400400008014092
:1034000010B586B0044601210820FEF7ABFA012171
:103410008804FEF787FA2848FEF7E4FF4FF480603F
:10342000ADF8100003208DF8120018208DF813005D
:1034300004A92248FDF713FA4FF40060ADF810001C
:1034400004208DF8130004A91C48FDF708FA009425
:103450000020ADF80400ADF80600ADF80800ADF8A6
:103460000C000C20ADF80A0069461348FFF764F819
:1034700001211148FEF7A9FF012240F225510E4813
:10348000FFF735F8012240F224410B48FFF72FF8EF
:1034900027208DF8140000208DF8150001208DF8EC
:1034A00016008DF8170005A8FDF78AFB00200449D7
:1034B000088006B010BD000000480040000C01402C
:1034C0000C0000200808A0F500114FEA31017047F8
:1034D00043004FEAD30C4FEA3C0C43401FBF400768
:1034E0000CF1605113F0FE4F70471CF0006F03D1D8
:1034F00000200CF0004170470CF0004343EA50708C
:1035000010B540EACC0000F078F900BF000000924E
:103510004FEA0001FFF7D6BF4FF000414FF0000027
:10352000A1F500217047401058BFC0F1404049103C
:1035300058BFC1F140418142EFF300807047000065
:103540004FF47F0C1CEAD0121EBF1CEAD11392EA82
:103550000C0F93EA0C0F00F0858090EA010F48BF32
:1035600042F4807240F4000C41F400002CF07F41E2
:1035700020F07F4000B58142A2EB03020FF2081C4D
:10358000ACEB504EC0F100009EF800E04FEA4E0E4A
:1035900000FB0EFC38BF49004FEA2C1C02F5FA0272
:1035A0000CFB0EF34FEACE1E4FEA112C4FEAC1215D
:1035B0000EEB635E42EB22420EFB0CFC4FEA1C5307
:1035C00000FB03114FEA112C4FEA01310EFB0CFCFA
:1035D0004FEADC4C00FB0C11C14228BF09184CEB30
:1035E00003335DF804EB10EB410143EBC250B2F53D
:1035F0007C0F38BF704729D512F0F00F1CBF00F1C7
:10360000C04000F000407047008182838485868737
:1036100088898B8C8D8E8F919293959697999A9C91
:103620009D9FA0A2A3A5A7A8AAACAEB0B2B3B5B700
:10363000B9BCBEC0C2C5C7C9CCCED1D4D7D9DCDFD6
:10364000E2E6E9ECF0F3F7FAFE0000004FEA400C86
:103650000CF1807CBCF17E4F28BF7047B0F1C040B8
:1036600000F011B990EA010F0CEAD11348BF42F4FF
:103670008072624538BF634507D213F47F0F16D0BE
:1036800080EA010000F00040704710B500F0B5F886
:10369000097EFC3E00F005B880EA010000F0004021
:1036A000704780EA010000F0004000F0ECB812F42E
:1036B0007F0F04BF0248704780EA010000F0E3B8C2
:1036C0000000C07F50EA010C00F113801CF5000FD0
:1036D00058BFBCF5000F01D48842704707D710F5DA
:1036E000000F58BF11F5000F15D48842704789426A
:1036F00070471CF5000F04D5BCF5000FF7D58142CB
:1037000070474FF0807C1CEB400F38BF1CEB410F23
:1037100001D28142704710B500F06FF89224490041
:103720004FF000504FF08051FFF7FDBE41000B0EEF
:10373000D3F19E0208D950F400034FEA032323FA81
:1037400002F048BF4042704710B500F056F800BF85
:1037500049922480002070476FF0004282EA2000E6
:1037600070470000C10DD1F19E0206DB4FEA002335
:1037700043F0004323FA02F07047004207D54FEAB6
:103780004001B1F1FE4F02D24FF00000704710B57A
:1037900000F033F849922480002070476FEA20003F
:1037A0007047000010F0004148BF4042B0FA80F37B
:1037B00010FA03F2C3F19D030BD051EAC35101EBA0
:1037C0001220530638BF704700F1010008BF20F0F7
:1037D00001007047B0FA80F310FA03F2C3F19D03C1
:1037E0000AD0D90501EB1220530638BF704700F10B
:1037F000010008BF20F0010070470EF1020E2EF00C
:10380000030E5EF8044B244204D44FEA4102B2F1A5
:103810007F4F11D84FEA4003B3F17F4F0CD80ED140
:103820004FEAD07CB2F17F4F0CEB4C0C0CF1020C48
:1038300008BF4CEBD17C04E04FF0080C01E04FEAEC
:10384000D17C0CEB4C0324FA03F404F00704B4F12C
:10385000040C06D20EEB840CBDE810404CF0010CB9
:103860006047DFE80CF0070802024FF00040A0F5C7
:10387000800010BD0846420018BFD2F1807288BF98
:1038800000F0004010BDFF2141EAD050C005704754
:10389000000001000200010003000100020001001D
:1038A0000400010002000100030001000200010009
:1038B00005000100020001000300010002000100F8
:1038C00004000100020001000300010002000100E9
:1038D00006000100020001000300010002000100D7
:1038E00004000100020001000300010002000100C9
:1038F00005000100020001000300010002000100B8
:1039000004000100020001000300010002000100A8
:103910000700010002000100030001000200010095
:103920000400010002000100030001000200010088
:103930000500010002000100030001000200010077
:103940000400010002000100030001000200010068
:103950000600010002000100030001000200010056
:103960000400010002000100030001000200010048
:103970000500010002000100030001000200010037
:103980000400010002000100030001000200010028
:103990000400000800000000000000020001000018
:1039A00010000000C439000800000020B40200002C
:1039B0006C010008283B0008B4020020CC20000065
:1039C000C8010008011122A0D021B8D0D0BBC4FA90
:1039D000D1A1D3C3B7E9D4B4D6C7C4DCB3C6B2C986
:1039E000BCAFBFD8D6C6C6F70D0A2808C1814001B2
:1039F000C0804104690C2908E918A91C091A30097A
:103A00001638093660092E70092F6000FF00C0C10A
:103A100001C30302C2C60607C705C5C404CC0C0D0A
:103A2000CD0FCFCE0E0ACACB0BC90908C8D81819BA
:103A3000D91BDBDA1A1EDEDF1FDD1D1CDC14D4D51A
:103A400015D71716D6D21213D311D1D010F03031AA
:103A5000F133F3F23236F6F737F53534F43CFCFD4A
:103A60003DFF3F3EFEFA3A3BFB39F9F83828E8E9DA
:103A700029EB2B2AEAEE2E2FEF2DEDEC2CE424255A
:103A8000E527E7E62622E2E323E12120E0A06061CA
:103A9000A163A3A26266A6A767A56564A46CACAD8A
:103AA0006DAF6F6EAEAA6A6BAB69A9A86878B8B93A
:103AB00079BB7B7ABABE7E7FBF7DBDBC7CB474759A
:103AC000B577B7B67672B2B373B17170B0509091EA
:103AD000519353529296565797559594549C5C5DCA
:103AE0009D5F9F9E5E5A9A9B5B995958988848495A
:103AF000894B8B8A4A4E8E8F4F8D4D4C8C448485DA
:103B0000458747468682424383418180524084A252
:103B10004A04680901020304060708090C69100534
:083B2000480204060800000041
:0400000508000215D8
:00000001FF
