Component: ARM Compiler 5.06 update 1 (build 61) Tool: armlink [4d35a8]

==============================================================================

Section Cross References

    main.o(i.event_task) refers to stm32f10x_gpio.o(i.GPIO_ReadInputDataBit) for GPIO_ReadInputDataBit
    main.o(i.event_task) refers to protocol485.o(i.getDustSettings) for getDustSettings
    main.o(i.event_task) refers to stm32f10x_gpio.o(i.GPIO_SetBits) for GPIO_SetBits
    main.o(i.event_task) refers to hx711.o(i.Get_Weight) for Get_Weight
    main.o(i.event_task) refers to protocol485.o(i.getOverState) for getOverState
    main.o(i.event_task) refers to protocol485.o(i.sendOnceEventData) for sendOnceEventData
    main.o(i.event_task) refers to os_time.o(i.OSTimeDlyHMSM) for OSTimeDlyHMSM
    main.o(i.event_task) refers to protocol485.o(.bss) for dustsettings
    main.o(i.main) refers to misc.o(i.NVIC_PriorityGroupConfig) for NVIC_PriorityGroupConfig
    main.o(i.main) refers to delay.o(i.delay_init) for delay_init
    main.o(i.main) refers to led.o(i.LED_Init) for LED_Init
    main.o(i.main) refers to bsp_spi_flash.o(i.SPI_FLASH_Init) for SPI_FLASH_Init
    main.o(i.main) refers to hx711.o(i.Init_HX711pin) for Init_HX711pin
    main.o(i.main) refers to usart1.o(i.uart1_init) for uart1_init
    main.o(i.main) refers to usart2.o(i.uart2_init) for uart2_init
    main.o(i.main) refers to usart3.o(i.uart3_init) for uart3_init
    main.o(i.main) refers to os_core.o(i.OSInit) for OSInit
    main.o(i.main) refers to os_task.o(i.OSTaskCreate) for OSTaskCreate
==============================================================================

Removing Unused input sections from the image.

    Removing main.o(.data), (1 bytes).
    Removing usart1.o(i.printHex), (36 bytes).
    Removing usart1.o(i.resetUart1RecvData), (20 bytes).
    Removing usart2.o(i.get485RecvData), (8 bytes).
    Removing usart2.o(i.get485RecvLen), (12 bytes).
    Removing usart2.o(i.reset485RecvData), (40 bytes).
    Removing usart2.o(i.uart2_printf), (116 bytes).
    Removing hx711.o(.data), (2 bytes).
    Removing flash.o(i.STMFLASH_Read), (34 bytes).
    Removing flash.o(i.STMFLASH_ReadHalfWord), (6 bytes).
    Removing flash.o(i.STMFLASH_Write), (232 bytes).
    Removing flash.o(i.STMFLASH_Write_NoCheck), (38 bytes).
    Removing flash.o(.bss), (1024 bytes).
    Removing bsp_spi_flash.o(i.SPI_FLASH_BulkErase), (40 bytes).
    Removing bsp_spi_flash.o(i.SPI_FLASH_ReadByte), (10 bytes).
    Removing bsp_spi_flash.o(i.SPI_FLASH_SendHalfWord), (112 bytes).
    Removing bsp_spi_flash.o(i.SPI_FLASH_StartReadSequence), (48 bytes).
    Removing usart5.o(i.USART5_IRQHandler), (104 bytes).
==============================================================================

Image Symbol Table

    Local Symbols

    Symbol Name                              Value     Ov Type        Size  Object(Section)

    ../clib/angel/boardlib.s                 0x00000000   Number         0  boardinit3.o ABSOLUTE
    ../clib/angel/boardlib.s                 0x00000000   Number         0  boardshut.o ABSOLUTE
    ../clib/angel/boardlib.s                 0x00000000   Number         0  boardinit1.o ABSOLUTE
    ../clib/angel/boardlib.s                 0x00000000   Number         0  boardinit2.o ABSOLUTE
    ../clib/angel/dczerorl2.s                0x00000000   Number         0  __dczerorl2.o ABSOLUTE
    ../clib/angel/handlers.s                 0x00000000   Number         0  __scatter_zi.o ABSOLUTE
    ../clib/angel/kernel.s                   0x00000000   Number         0  __rtentry2.o ABSOLUTE
    ../clib/angel/kernel.s                   0x00000000   Number         0  __rtentry4.o ABSOLUTE
    ../clib/angel/kernel.s                   0x00000000   Number         0  rtexit2.o ABSOLUTE
    ../clib/angel/kernel.s                   0x00000000   Number         0  rtexit.o ABSOLUTE
    ../clib/angel/kernel.s                   0x00000000   Number         0  __rtentry.o ABSOLUTE
    ../clib/angel/rt.s                       0x00000000   Number         0  rt_locale_intlibspace.o ABSOLUTE
    ../clib/angel/rt.s                       0x00000000   Number         0  rt_locale.o ABSOLUTE
    ../clib/angel/rt.s                       0x00000000   Number         0  rt_raise.o ABSOLUTE
    ../clib/angel/rt.s                       0x00000000   Number         0  rt_ctype_table.o ABSOLUTE
    ../clib/angel/scatter.s                  0x00000000   Number         0  __scatter.o ABSOLUTE
    ../clib/angel/startup.s                  0x00000000   Number         0  __main.o ABSOLUTE
    ../clib/angel/sys.s                      0x00000000   Number         0  libspace.o ABSOLUTE
    ../clib/angel/sys.s                      0x00000000   Number         0  use_no_semi.o ABSOLUTE
    ../clib/angel/sys.s                      0x00000000   Number         0  use_no_semi_2.o ABSOLUTE
    ../clib/angel/sys.s                      0x00000000   Number         0  sys_stackheap_outer.o ABSOLUTE
    ../clib/angel/sys.s                      0x00000000   Number         0  indicate_semi.o ABSOLUTE
    ../clib/angel/sysapp.c                   0x00000000   Number         0  sys_wrch.o ABSOLUTE
    ../clib/angel/sysapp.c                   0x00000000   Number         0  sys_command.o ABSOLUTE
    ../clib/armsys.c                         0x00000000   Number         0  argv_veneer.o ABSOLUTE
    ../clib/armsys.c                         0x00000000   Number         0  no_argv.o ABSOLUTE
    ../clib/armsys.c                         0x00000000   Number         0  _get_argv_nomalloc.o ABSOLUTE
    ../clib/armsys.c                         0x00000000   Number         0  argv_veneer.o ABSOLUTE
    ../clib/bigflt.c                         0x00000000   Number         0  bigflt0.o ABSOLUTE
    ../clib/btod.s                           0x00000000   Number         0  btod.o ABSOLUTE
    ../clib/heapalloc.c                      0x00000000   Number         0  hrguard.o ABSOLUTE
    ../clib/heapaux.c                        0x00000000   Number         0  heapauxi.o ABSOLUTE
    ../clib/libinit.s                        0x00000000   Number         0  libshutdown.o ABSOLUTE
    ../clib/libinit.s                        0x00000000   Number         0  libinit.o ABSOLUTE
    ../clib/libinit.s                        0x00000000   Number         0  libinit2.o ABSOLUTE
    ../clib/libinit.s                        0x00000000   Number         0  libshutdown2.o ABSOLUTE
    ../clib/locale.c                         0x00000000   Number         0  _wcrtomb.o ABSOLUTE
    ../clib/locale.s                         0x00000000   Number         0  lc_ctype_c.o ABSOLUTE
    ../clib/locale.s                         0x00000000   Number         0  lc_numeric_c.o ABSOLUTE
    ../clib/longlong.s                       0x00000000   Number         0  lludiv10.o ABSOLUTE
    ../clib/memcpset.s                       0x00000000   Number         0  rt_memclr_w.o ABSOLUTE
    ../clib/memcpset.s                       0x00000000   Number         0  rt_memclr.o ABSOLUTE
    ../clib/memcpset.s                       0x00000000   Number         0  strcmpv7m.o ABSOLUTE
    ../clib/memcpset.s                       0x00000000   Number         0  rt_memcpy_w.o ABSOLUTE
    ../clib/memcpset.s                       0x00000000   Number         0  rt_memcpy_v6.o ABSOLUTE
    ../clib/misc.s                           0x00000000   Number         0  printf_stubs.o ABSOLUTE
    ../clib/printf.c                         0x00000000   Number         0  vsprintf.o ABSOLUTE
    ../clib/printf.c                         0x00000000   Number         0  _printf_hex_int.o ABSOLUTE
    ../clib/printf.c                         0x00000000   Number         0  _printf_hex_ll.o ABSOLUTE
    ../clib/printf.c                         0x00000000   Number         0  _printf_oct_int_ll.o ABSOLUTE
    ../clib/printf.c                         0x00000000   Number         0  _printf_oct_int.o ABSOLUTE
    ../clib/printf.c                         0x00000000   Number         0  _printf_longlong_dec.o ABSOLUTE
    ../clib/printf.c                         0x00000000   Number         0  _printf_wctomb.o ABSOLUTE
    ../clib/printf.c                         0x00000000   Number         0  __printf_flags_ss_wp.o ABSOLUTE
    ../clib/printf.c                         0x00000000   Number         0  __printf_ss_wp.o ABSOLUTE
    ../clib/printf.c                         0x00000000   Number         0  __printf_flags_wp.o ABSOLUTE
    ../clib/printf.c                         0x00000000   Number         0  __printf.o ABSOLUTE
    ../clib/printf.c                         0x00000000   Number         0  __printf_flags_ss.o ABSOLUTE
    ../clib/printf.c                         0x00000000   Number         0  __printf_ss.o ABSOLUTE
    ../clib/printf.c                         0x00000000   Number         0  __printf_flags.o ABSOLUTE
    ../clib/printf.c                         0x00000000   Number         0  _printf_char_file.o ABSOLUTE
    ../clib/printf.c                         0x00000000   Number         0  _printf_dec.o ABSOLUTE
    ../clib/printf.c                         0x00000000   Number         0  _sputc.o ABSOLUTE
    ../clib/printf.c                         0x00000000   Number         0  _printf_char_common.o ABSOLUTE
    ../clib/printf.c                         0x00000000   Number         0  _printf_intcommon.o ABSOLUTE
    ../clib/printf.c                         0x00000000   Number         0  noretval__2printf.o ABSOLUTE
    ../clib/printf.c                         0x00000000   Number         0  _printf_str.o ABSOLUTE
    ../clib/printf.c                         0x00000000   Number         0  _printf_truncate.o ABSOLUTE
    ../clib/printf.c                         0x00000000   Number         0  __2printf.o ABSOLUTE
    ../clib/printf.c                         0x00000000   Number         0  _printf_pad.o ABSOLUTE
    ../clib/printf.c                         0x00000000   Number         0  __printf_wp.o ABSOLUTE
    ../clib/printf.c                         0x00000000   Number         0  _printf_charcount.o ABSOLUTE
    ../clib/printf.c                         0x00000000   Number         0  _printf_fp_infnan.o ABSOLUTE
    ../clib/printf.c                         0x00000000   Number         0  _printf_fp_dec.o ABSOLUTE
    ../clib/printf.c                         0x00000000   Number         0  _printf_fp_hex.o ABSOLUTE
    ../clib/printf.c                         0x00000000   Number         0  __printf_nopercent.o ABSOLUTE
    ../clib/printf.c                         0x00000000   Number         0  _printf_char.o ABSOLUTE
    ../clib/printf.c                         0x00000000   Number         0  _printf_wchar.o ABSOLUTE
    ../clib/printf.c                         0x00000000   Number         0  _printf_oct_ll.o ABSOLUTE
    ../clib/printf.c                         0x00000000   Number         0  _printf_hex_int_ll_ptr.o ABSOLUTE
    ../clib/printf.c                         0x00000000   Number         0  _printf_hex_ll_ptr.o ABSOLUTE
    ../clib/printf.c                         0x00000000   Number         0  _printf_hex_int_ptr.o ABSOLUTE
    ../clib/printf.c                         0x00000000   Number         0  _printf_hex_ptr.o ABSOLUTE
    ../clib/printf.c                         0x00000000   Number         0  _printf_hex_int_ll.o ABSOLUTE
    ../clib/printf_percent.s                 0x00000000   Number         0  _printf_f.o ABSOLUTE
    ../clib/printf_percent.s                 0x00000000   Number         0  _printf_l.o ABSOLUTE
    ../clib/printf_percent.s                 0x00000000   Number         0  _printf_lc.o ABSOLUTE
    ../clib/printf_percent.s                 0x00000000   Number         0  _printf_ls.o ABSOLUTE
    ../clib/printf_percent.s                 0x00000000   Number         0  _printf_percent.o ABSOLUTE
    ../clib/printf_percent.s                 0x00000000   Number         0  _printf_d.o ABSOLUTE
    ../clib/printf_percent.s                 0x00000000   Number         0  _printf_llo.o ABSOLUTE
    ../clib/printf_percent.s                 0x00000000   Number         0  _printf_llx.o ABSOLUTE
    ../clib/printf_percent.s                 0x00000000   Number         0  _printf_u.o ABSOLUTE
    ../clib/printf_percent.s                 0x00000000   Number         0  _printf_i.o ABSOLUTE
    ../clib/printf_percent.s                 0x00000000   Number         0  _printf_o.o ABSOLUTE
    ../clib/printf_percent.s                 0x00000000   Number         0  _printf_p.o ABSOLUTE
    ../clib/printf_percent.s                 0x00000000   Number         0  _printf_x.o ABSOLUTE
    ../clib/printf_percent.s                 0x00000000   Number         0  _printf_c.o ABSOLUTE
    ../clib/printf_percent.s                 0x00000000   Number         0  _printf_s.o ABSOLUTE
    ../clib/printf_percent.s                 0x00000000   Number         0  _printf_ll.o ABSOLUTE
    ../clib/printf_percent.s                 0x00000000   Number         0  _printf_llu.o ABSOLUTE
    ../clib/printf_percent.s                 0x00000000   Number         0  _printf_lld.o ABSOLUTE
    ../clib/printf_percent.s                 0x00000000   Number         0  _printf_lli.o ABSOLUTE
    ../clib/printf_percent.s                 0x00000000   Number         0  _printf_percent_end.o ABSOLUTE
    ../clib/printf_percent.s                 0x00000000   Number         0  _printf_a.o ABSOLUTE
    ../clib/printf_percent.s                 0x00000000   Number         0  _printf_g.o ABSOLUTE
    ../clib/printf_percent.s                 0x00000000   Number         0  _printf_e.o ABSOLUTE
    ../clib/printf_percent.s                 0x00000000   Number         0  _printf_n.o ABSOLUTE
    ../clib/signal.c                         0x00000000   Number         0  defsig_rtmem_formal.o ABSOLUTE
    ../clib/signal.c                         0x00000000   Number         0  __raise.o ABSOLUTE
    ../clib/signal.c                         0x00000000   Number         0  defsig_stak_inner.o ABSOLUTE
    ../clib/signal.c                         0x00000000   Number         0  defsig_pvfn_inner.o ABSOLUTE
    ../clib/signal.c                         0x00000000   Number         0  defsig_cppl_inner.o ABSOLUTE
    ../clib/signal.c                         0x00000000   Number         0  defsig_segv_inner.o ABSOLUTE
    ../clib/signal.c                         0x00000000   Number         0  defsig_other.o ABSOLUTE
    ../clib/signal.c                         0x00000000   Number         0  defsig_rtmem_inner.o ABSOLUTE
    ../clib/signal.c                         0x00000000   Number         0  defsig_rtmem_outer.o ABSOLUTE
    ../clib/signal.c                         0x00000000   Number         0  defsig_exit.o ABSOLUTE
    ../clib/signal.c                         0x00000000   Number         0  defsig_general.o ABSOLUTE
    ../clib/signal.c                         0x00000000   Number         0  defsig_abrt_inner.o ABSOLUTE
    ../clib/signal.c                         0x00000000   Number         0  defsig_fpe_inner.o ABSOLUTE
    ../clib/signal.c                         0x00000000   Number         0  defsig_rtred_inner.o ABSOLUTE
    ../clib/signal.s                         0x00000000   Number         0  defsig.o ABSOLUTE
    ../clib/stdio.c                          0x00000000   Number         0  ferror.o ABSOLUTE
    ../clib/stdio.c                          0x00000000   Number         0  ferror_locked.o ABSOLUTE
    ../clib/stdlib.c                         0x00000000   Number         0  exit.o ABSOLUTE
    ../clib/string.c                         0x00000000   Number         0  strlen.o ABSOLUTE
    ../fplib/dretinf.s                       0x00000000   Number         0  dretinf.o ABSOLUTE
    ../fplib/f2d.s                           0x00000000   Number         0  f2d.o ABSOLUTE
    ../fplib/fcmpi.s                         0x00000000   Number         0  fcmpi.o ABSOLUTE
    ../fplib/fdiv.s                          0x00000000   Number         0  fdiv.o ABSOLUTE
    ../fplib/feqf.s                          0x00000000   Number         0  feqf.o ABSOLUTE
    ../fplib/ffix.s                          0x00000000   Number         0  ffix.o ABSOLUTE
    ../fplib/ffixu.s                         0x00000000   Number         0  ffixu.o ABSOLUTE
    ../fplib/fflt.s                          0x00000000   Number         0  fflt_clz.o ABSOLUTE
    ../fplib/fnaninf.s                       0x00000000   Number         0  fnaninf.o ABSOLUTE
    ../fplib/fpinit.s                        0x00000000   Number         0  fpinit.o ABSOLUTE
    ../fplib/fretinf.s                       0x00000000   Number         0  fretinf.o ABSOLUTE
    ../fplib/istatus.s                       0x00000000   Number         0  istatus.o ABSOLUTE
    ../fplib/printf1.s                       0x00000000   Number         0  printf1.o ABSOLUTE
    ../fplib/printf2.s                       0x00000000   Number         0  printf2.o ABSOLUTE
    ../fplib/printf2a.s                      0x00000000   Number         0  printf2a.o ABSOLUTE
    ../fplib/printf2b.s                      0x00000000   Number         0  printf2b.o ABSOLUTE
    ../fplib/usenofp.s                       0x00000000   Number         0  usenofp.o ABSOLUTE
    ../mathlib/fpclassify.c                  0x00000000   Number         0  fpclassify.o ABSOLUTE
    ..\SOURCE\CORE\core_cm3.c                0x00000000   Number         0  core_cm3.o ABSOLUTE
    ..\SOURCE\CORE\startup_stm32f10x_hd.s    0x00000000   Number         0  startup_stm32f10x_hd.o ABSOLUTE
    ..\SOURCE\CORE\stm32f10x_it.c            0x00000000   Number         0  stm32f10x_it.o ABSOLUTE
    ..\SOURCE\CORE\system_stm32f10x.c        0x00000000   Number         0  system_stm32f10x.o ABSOLUTE
    ..\SOURCE\EXMODULE\PROTOCOL485\protocol485.c 0x00000000   Number         0  protocol485.o ABSOLUTE
    ..\SOURCE\HARDWARE\LED\led.c             0x00000000   Number         0  led.o ABSOLUTE
    ..\SOURCE\HARDWARE\USART\usart5.c        0x00000000   Number         0  usart5.o ABSOLUTE
    ..\SOURCE\HARDWARE\flash\flash.c         0x00000000   Number         0  flash.o ABSOLUTE
    ..\SOURCE\HARDWARE\hx711\hx711.c         0x00000000   Number         0  hx711.o ABSOLUTE
    ..\SOURCE\HARDWARE\old-flash\bsp_spi_flash.c 0x00000000   Number         0  bsp_spi_flash.o ABSOLUTE
    ..\SOURCE\HARDWARE\usart\usart1.c        0x00000000   Number         0  usart1.o ABSOLUTE
    ..\SOURCE\HARDWARE\usart\usart2.c        0x00000000   Number         0  usart2.o ABSOLUTE
    ..\SOURCE\HARDWARE\usart\usart3.c        0x00000000   Number         0  usart3.o ABSOLUTE
    ..\SOURCE\STM32F10x_FWLib\src\misc.c     0x00000000   Number         0  misc.o ABSOLUTE
    ..\SOURCE\STM32F10x_FWLib\src\stm32f10x_adc.c 0x00000000   Number         0  stm32f10x_adc.o ABSOLUTE
    ..\SOURCE\STM32F10x_FWLib\src\stm32f10x_bkp.c 0x00000000   Number         0  stm32f10x_bkp.o ABSOLUTE
    ..\SOURCE\STM32F10x_FWLib\src\stm32f10x_can.c 0x00000000   Number         0  stm32f10x_can.o ABSOLUTE
    ..\SOURCE\STM32F10x_FWLib\src\stm32f10x_cec.c 0x00000000   Number         0  stm32f10x_cec.o ABSOLUTE
    ..\SOURCE\STM32F10x_FWLib\src\stm32f10x_crc.c 0x00000000   Number         0  stm32f10x_crc.o ABSOLUTE
    ..\SOURCE\STM32F10x_FWLib\src\stm32f10x_dac.c 0x00000000   Number         0  stm32f10x_dac.o ABSOLUTE
    ..\SOURCE\STM32F10x_FWLib\src\stm32f10x_dbgmcu.c 0x00000000   Number         0  stm32f10x_dbgmcu.o ABSOLUTE
    ..\SOURCE\STM32F10x_FWLib\src\stm32f10x_dma.c 0x00000000   Number         0  stm32f10x_dma.o ABSOLUTE
    ..\SOURCE\STM32F10x_FWLib\src\stm32f10x_exti.c 0x00000000   Number         0  stm32f10x_exti.o ABSOLUTE
    ..\SOURCE\STM32F10x_FWLib\src\stm32f10x_flash.c 0x00000000   Number         0  stm32f10x_flash.o ABSOLUTE
    ..\SOURCE\STM32F10x_FWLib\src\stm32f10x_fsmc.c 0x00000000   Number         0  stm32f10x_fsmc.o ABSOLUTE
    ..\SOURCE\STM32F10x_FWLib\src\stm32f10x_gpio.c 0x00000000   Number         0  stm32f10x_gpio.o ABSOLUTE
    ..\SOURCE\STM32F10x_FWLib\src\stm32f10x_i2c.c 0x00000000   Number         0  stm32f10x_i2c.o ABSOLUTE
    ..\SOURCE\STM32F10x_FWLib\src\stm32f10x_iwdg.c 0x00000000   Number         0  stm32f10x_iwdg.o ABSOLUTE
    ..\SOURCE\STM32F10x_FWLib\src\stm32f10x_pwr.c 0x00000000   Number         0  stm32f10x_pwr.o ABSOLUTE
    ..\SOURCE\STM32F10x_FWLib\src\stm32f10x_rcc.c 0x00000000   Number         0  stm32f10x_rcc.o ABSOLUTE
    ..\SOURCE\STM32F10x_FWLib\src\stm32f10x_rtc.c 0x00000000   Number         0  stm32f10x_rtc.o ABSOLUTE
    ..\SOURCE\STM32F10x_FWLib\src\stm32f10x_sdio.c 0x00000000   Number         0  stm32f10x_sdio.o ABSOLUTE
    ..\SOURCE\STM32F10x_FWLib\src\stm32f10x_spi.c 0x00000000   Number         0  stm32f10x_spi.o ABSOLUTE
    ..\SOURCE\STM32F10x_FWLib\src\stm32f10x_tim.c 0x00000000   Number         0  stm32f10x_tim.o ABSOLUTE
    ..\SOURCE\STM32F10x_FWLib\src\stm32f10x_usart.c 0x00000000   Number         0  stm32f10x_usart.o ABSOLUTE
    ..\SOURCE\STM32F10x_FWLib\src\stm32f10x_wwdg.c 0x00000000   Number         0  stm32f10x_wwdg.o ABSOLUTE
    ..\SOURCE\SYSTEM\delay\delay.c           0x00000000   Number         0  delay.o ABSOLUTE
    ..\SOURCE\SYSTEM\sys\sys.c               0x00000000   Number         0  sys.o ABSOLUTE
    ..\SOURCE\UCOSII\CORE\os_core.c          0x00000000   Number         0  os_core.o ABSOLUTE
    ..\SOURCE\UCOSII\CORE\os_flag.c          0x00000000   Number         0  os_flag.o ABSOLUTE
    ..\SOURCE\UCOSII\CORE\os_mbox.c          0x00000000   Number         0  os_mbox.o ABSOLUTE
    ..\SOURCE\UCOSII\CORE\os_mem.c           0x00000000   Number         0  os_mem.o ABSOLUTE
    ..\SOURCE\UCOSII\CORE\os_mutex.c         0x00000000   Number         0  os_mutex.o ABSOLUTE
    ..\SOURCE\UCOSII\CORE\os_q.c             0x00000000   Number         0  os_q.o ABSOLUTE
    ..\SOURCE\UCOSII\CORE\os_sem.c           0x00000000   Number         0  os_sem.o ABSOLUTE
    ..\SOURCE\UCOSII\CORE\os_task.c          0x00000000   Number         0  os_task.o ABSOLUTE
    ..\SOURCE\UCOSII\CORE\os_time.c          0x00000000   Number         0  os_time.o ABSOLUTE
    ..\SOURCE\UCOSII\CORE\os_tmr.c           0x00000000   Number         0  os_tmr.o ABSOLUTE
    ..\SOURCE\UCOSII\PORT\os_cpu_a.asm       0x00000000   Number         0  os_cpu_a.o ABSOLUTE
    ..\SOURCE\UCOSII\PORT\os_cpu_c.c         0x00000000   Number         0  os_cpu_c.o ABSOLUTE
    ..\SOURCE\UCOSII\PORT\os_dbg.c           0x00000000   Number         0  os_dbg.o ABSOLUTE
    ..\\SOURCE\\CORE\\core_cm3.c             0x00000000   Number         0  core_cm3.o ABSOLUTE
    ..\\SOURCE\\SYSTEM\\sys\\sys.c           0x00000000   Number         0  sys.o ABSOLUTE
    dc.s                                     0x00000000   Number         0  dc.o ABSOLUTE
    main.c                                   0x00000000   Number         0  main.o ABSOLUTE
    RESET                                    0x08000000   Section      304  startup_stm32f10x_hd.o(RESET)
    !!!main                                  0x08000130   Section        8  __main.o(!!!main)
    !!!scatter                               0x08000138   Section       52  __scatter.o(!!!scatter)
    !!dczerorl2                              0x0800016c   Section       90  __dczerorl2.o(!!dczerorl2)
    !!handler_zi                             0x080001c8   Section       28  __scatter_zi.o(!!handler_zi)
    .ARM.Collect$$_printf_percent$$00000000  0x080001e4   Section        0  _printf_percent.o(.ARM.Collect$$_printf_percent$$00000000)
    .ARM.Collect$$_printf_percent$$00000009  0x080001e4   Section        6  _printf_d.o(.ARM.Collect$$_printf_percent$$00000009)
    .ARM.Collect$$_printf_percent$$00000017  0x080001ea   Section        4  _printf_percent_end.o(.ARM.Collect$$_printf_percent$$00000017)
    .ARM.Collect$$libinit$$00000000          0x080001ee   Section        2  libinit.o(.ARM.Collect$$libinit$$00000000)
    .ARM.Collect$$libinit$$00000002          0x080001f0   Section        0  libinit2.o(.ARM.Collect$$libinit$$00000002)
    .ARM.Collect$$libinit$$00000004          0x080001f0   Section        0  libinit2.o(.ARM.Collect$$libinit$$00000004)
    .ARM.Collect$$libinit$$0000000A          0x080001f0   Section        0  libinit2.o(.ARM.Collect$$libinit$$0000000A)
    .ARM.Collect$$libinit$$0000000C          0x080001f0   Section        0  libinit2.o(.ARM.Collect$$libinit$$0000000C)
    .ARM.Collect$$libinit$$0000000E          0x080001f0   Section        0  libinit2.o(.ARM.Collect$$libinit$$0000000E)
    .ARM.Collect$$libinit$$00000011          0x080001f0   Section        0  libinit2.o(.ARM.Collect$$libinit$$00000011)
    .ARM.Collect$$libinit$$00000013          0x080001f0   Section        0  libinit2.o(.ARM.Collect$$libinit$$00000013)
    .ARM.Collect$$libinit$$00000015          0x080001f0   Section        0  libinit2.o(.ARM.Collect$$libinit$$00000015)
    .ARM.Collect$$libinit$$00000017          0x080001f0   Section        0  libinit2.o(.ARM.Collect$$libinit$$00000017)
    .ARM.Collect$$libinit$$00000019          0x080001f0   Section        0  libinit2.o(.ARM.Collect$$libinit$$00000019)
    .ARM.Collect$$libinit$$0000001B          0x080001f0   Section        0  libinit2.o(.ARM.Collect$$libinit$$0000001B)
    .ARM.Collect$$libinit$$0000001D          0x080001f0   Section        0  libinit2.o(.ARM.Collect$$libinit$$0000001D)
    .ARM.Collect$$libinit$$0000001F          0x080001f0   Section        0  libinit2.o(.ARM.Collect$$libinit$$0000001F)
    .ARM.Collect$$libinit$$00000021          0x080001f0   Section        0  libinit2.o(.ARM.Collect$$libinit$$00000021)
    .ARM.Collect$$libinit$$00000023          0x080001f0   Section        0  libinit2.o(.ARM.Collect$$libinit$$00000023)
    .ARM.Collect$$libinit$$00000025          0x080001f0   Section        0  libinit2.o(.ARM.Collect$$libinit$$00000025)
    .ARM.Collect$$libinit$$0000002C          0x080001f0   Section        0  libinit2.o(.ARM.Collect$$libinit$$0000002C)
    .ARM.Collect$$libinit$$0000002E          0x080001f0   Section        0  libinit2.o(.ARM.Collect$$libinit$$0000002E)
    .ARM.Collect$$libinit$$00000030          0x080001f0   Section        0  libinit2.o(.ARM.Collect$$libinit$$00000030)
    .ARM.Collect$$libinit$$00000032          0x080001f0   Section        0  libinit2.o(.ARM.Collect$$libinit$$00000032)
    .ARM.Collect$$libinit$$00000033          0x080001f0   Section        2  libinit2.o(.ARM.Collect$$libinit$$00000033)
    .ARM.Collect$$libshutdown$$00000000      0x080001f2   Section        2  libshutdown.o(.ARM.Collect$$libshutdown$$00000000)
    .ARM.Collect$$libshutdown$$00000002      0x080001f4   Section        0  libshutdown2.o(.ARM.Collect$$libshutdown$$00000002)
    .ARM.Collect$$libshutdown$$00000004      0x080001f4   Section        0  libshutdown2.o(.ARM.Collect$$libshutdown$$00000004)
    .ARM.Collect$$libshutdown$$00000007      0x080001f4   Section        0  libshutdown2.o(.ARM.Collect$$libshutdown$$00000007)
    .ARM.Collect$$libshutdown$$0000000A      0x080001f4   Section        0  libshutdown2.o(.ARM.Collect$$libshutdown$$0000000A)
    .ARM.Collect$$libshutdown$$0000000C      0x080001f4   Section        0  libshutdown2.o(.ARM.Collect$$libshutdown$$0000000C)
    .ARM.Collect$$libshutdown$$0000000F      0x080001f4   Section        0  libshutdown2.o(.ARM.Collect$$libshutdown$$0000000F)
    .ARM.Collect$$libshutdown$$00000010      0x080001f4   Section        2  libshutdown2.o(.ARM.Collect$$libshutdown$$00000010)
    .ARM.Collect$$rtentry$$00000000          0x080001f6   Section        0  __rtentry.o(.ARM.Collect$$rtentry$$00000000)
    .ARM.Collect$$rtentry$$00000002          0x080001f6   Section        0  __rtentry2.o(.ARM.Collect$$rtentry$$00000002)
    .ARM.Collect$$rtentry$$00000004          0x080001f6   Section        6  __rtentry4.o(.ARM.Collect$$rtentry$$00000004)
    .ARM.Collect$$rtentry$$00000009          0x080001fc   Section        0  __rtentry2.o(.ARM.Collect$$rtentry$$00000009)
    .ARM.Collect$$rtentry$$0000000A          0x080001fc   Section        4  __rtentry2.o(.ARM.Collect$$rtentry$$0000000A)
    .ARM.Collect$$rtentry$$0000000C          0x08000200   Section        0  __rtentry2.o(.ARM.Collect$$rtentry$$0000000C)
    .ARM.Collect$$rtentry$$0000000D          0x08000200   Section        8  __rtentry2.o(.ARM.Collect$$rtentry$$0000000D)
    .ARM.Collect$$rtexit$$00000000           0x08000208   Section        2  rtexit.o(.ARM.Collect$$rtexit$$00000000)
    .ARM.Collect$$rtexit$$00000002           0x0800020a   Section        0  rtexit2.o(.ARM.Collect$$rtexit$$00000002)
    .ARM.Collect$$rtexit$$00000003           0x0800020a   Section        4  rtexit2.o(.ARM.Collect$$rtexit$$00000003)
    .ARM.Collect$$rtexit$$00000004           0x0800020e   Section        6  rtexit2.o(.ARM.Collect$$rtexit$$00000004)
    .text                                    0x08000214   Section       64  startup_stm32f10x_hd.o(.text)
    .text                                    0x08000254   Section      180  os_cpu_a.o(.text)
    .text                                    0x08000308   Section        2  use_no_semi_2.o(.text)
    .text                                    0x0800030c   Section        0  __2printf.o(.text)
    .text                                    0x08000324   Section        0  _printf_dec.o(.text)
    .text                                    0x0800039c   Section        0  __printf_flags_ss_wp.o(.text)
    .text                                    0x08000524   Section      138  rt_memcpy_v6.o(.text)
    .text                                    0x080005ae   Section       68  rt_memclr.o(.text)
    .text                                    0x080005f2   Section       78  rt_memclr_w.o(.text)
    .text                                    0x08000640   Section        0  heapauxi.o(.text)
    .text                                    0x08000646   Section        2  use_no_semi.o(.text)
    .text                                    0x08000648   Section        0  _printf_intcommon.o(.text)
    .text                                    0x080006fc   Section        0  _printf_char_common.o(.text)
    _printf_input_char                       0x080006fd   Thumb Code    10  _printf_char_common.o(.text)
    .text                                    0x0800072c   Section        0  _printf_char_file.o(.text)
    .text                                    0x08000750   Section      100  rt_memcpy_w.o(.text)
    .text                                    0x080007b4   Section        0  ferror.o(.text)
    .text                                    0x080007bc   Section       74  sys_stackheap_outer.o(.text)
    .text                                    0x08000806   Section        0  exit.o(.text)
    .text                                    0x08000818   Section        8  libspace.o(.text)
    i.BusFault_Handler                       0x08000820   Section        0  stm32f10x_it.o(i.BusFault_Handler)
    i.CalculateCrc16                         0x08000824   Section        0  protocol485.o(i.CalculateCrc16)
    i.DebugMon_Handler                       0x0800085c   Section        0  stm32f10x_it.o(i.DebugMon_Handler)
    i.GPIO_Init                              0x0800085e   Section        0  stm32f10x_gpio.o(i.GPIO_Init)
    i.GPIO_ReadInputDataBit                  0x08000974   Section        0  stm32f10x_gpio.o(i.GPIO_ReadInputDataBit)
    i.GPIO_ResetBits                         0x08000986   Section        0  stm32f10x_gpio.o(i.GPIO_ResetBits)
    i.GPIO_SetBits                           0x0800098a   Section        0  stm32f10x_gpio.o(i.GPIO_SetBits)
    i.Get_Weight                             0x08000990   Section        0  hx711.o(i.Get_Weight)
    i.HX711_Read                             0x08000a30   Section        0  hx711.o(i.HX711_Read)
    i.HardFault_Handler                      0x08000b18   Section        0  stm32f10x_it.o(i.HardFault_Handler)
    i.Init_HX711pin                          0x08000b1c   Section        0  hx711.o(i.Init_HX711pin)
    i.LED_Init                               0x08000b6c   Section        0  led.o(i.LED_Init)
    i.MemManage_Handler                      0x08000bb8   Section        0  stm32f10x_it.o(i.MemManage_Handler)
    i.NMI_Handler                            0x08000bbc   Section        0  stm32f10x_it.o(i.NMI_Handler)
    i.NVIC_Init                              0x08000bc0   Section        0  misc.o(i.NVIC_Init)
    i.NVIC_PriorityGroupConfig               0x08000c30   Section        0  misc.o(i.NVIC_PriorityGroupConfig)
    i.OSInit                                 0x08000c44   Section        0  os_core.o(i.OSInit)
    i.OSInitHookBegin                        0x08000c70   Section        0  os_cpu_c.o(i.OSInitHookBegin)
    i.OSInitHookEnd                          0x08000c72   Section        0  os_cpu_c.o(i.OSInitHookEnd)
    i.OSIntEnter                             0x08000c74   Section        0  os_core.o(i.OSIntEnter)
    i.OSIntExit                              0x08000c98   Section        0  os_core.o(i.OSIntExit)
    i.OSSchedLock                            0x08000d28   Section        0  os_core.o(i.OSSchedLock)
    i.OSSchedUnlock                          0x08000d68   Section        0  os_core.o(i.OSSchedUnlock)
    i.OSStart                                0x08000dc8   Section        0  os_core.o(i.OSStart)
    i.OSTCBInitHook                          0x08000e10   Section        0  os_cpu_c.o(i.OSTCBInitHook)
    i.OSTaskCreate                           0x08000e14   Section        0  os_task.o(i.OSTaskCreate)
    i.OSTaskCreateExt                        0x08000eb4   Section        0  os_task.o(i.OSTaskCreateExt)
    i.OSTaskCreateHook                       0x08000f6c   Section        0  os_cpu_c.o(i.OSTaskCreateHook)
    i.OSTaskIdleHook                         0x08000f6e   Section        0  os_cpu_c.o(i.OSTaskIdleHook)
    i.OSTaskNameSet                          0x08000f70   Section        0  os_task.o(i.OSTaskNameSet)
    i.OSTaskStatHook                         0x08000fe0   Section        0  os_cpu_c.o(i.OSTaskStatHook)
    i.OSTaskStkChk                           0x08000fe4   Section        0  os_task.o(i.OSTaskStkChk)
    i.OSTaskStkInit                          0x08001070   Section        0  os_cpu_c.o(i.OSTaskStkInit)
    i.OSTaskSuspend                          0x0800110c   Section        0  os_task.o(i.OSTaskSuspend)
    i.OSTaskSwHook                           0x080011b4   Section        0  os_cpu_c.o(i.OSTaskSwHook)
    i.OSTimeDly                              0x080011b8   Section        0  os_time.o(i.OSTimeDly)
    i.OSTimeDlyHMSM                          0x08001230   Section        0  os_time.o(i.OSTimeDlyHMSM)
    i.OSTimeTick                             0x08001290   Section        0  os_core.o(i.OSTimeTick)
    i.OSTimeTickHook                         0x0800137c   Section        0  os_cpu_c.o(i.OSTimeTickHook)
    i.OS_FlagInit                            0x08001380   Section        0  os_flag.o(i.OS_FlagInit)
    i.OS_InitEventList                       0x080013d8   Section        0  os_core.o(i.OS_InitEventList)
    OS_InitEventList                         0x080013d9   Thumb Code    74  os_core.o(i.OS_InitEventList)
    i.OS_InitMisc                            0x0800142c   Section        0  os_core.o(i.OS_InitMisc)
    OS_InitMisc                              0x0800142d   Thumb Code    44  os_core.o(i.OS_InitMisc)
    i.OS_InitRdyList                         0x08001480   Section        0  os_core.o(i.OS_InitRdyList)
    OS_InitRdyList                           0x08001481   Thumb Code    44  os_core.o(i.OS_InitRdyList)
    i.OS_InitTCBList                         0x080014c4   Section        0  os_core.o(i.OS_InitTCBList)
    OS_InitTCBList                           0x080014c5   Thumb Code   106  os_core.o(i.OS_InitTCBList)
    i.OS_InitTaskIdle                        0x08001544   Section        0  os_core.o(i.OS_InitTaskIdle)
    OS_InitTaskIdle                          0x08001545   Thumb Code    50  os_core.o(i.OS_InitTaskIdle)
    i.OS_InitTaskStat                        0x08001594   Section        0  os_core.o(i.OS_InitTaskStat)
    OS_InitTaskStat                          0x08001595   Thumb Code    50  os_core.o(i.OS_InitTaskStat)
    i.OS_MemClr                              0x080015e4   Section        0  os_core.o(i.OS_MemClr)
    i.OS_QInit                               0x080015f8   Section        0  os_q.o(i.OS_QInit)
    i.OS_Sched                               0x08001648   Section        0  os_core.o(i.OS_Sched)
    i.OS_SchedNew                            0x080016bc   Section        0  os_core.o(i.OS_SchedNew)
    OS_SchedNew                              0x080016bd   Thumb Code    26  os_core.o(i.OS_SchedNew)
    i.OS_TCBInit                             0x080016e8   Section        0  os_core.o(i.OS_TCBInit)
    i.OS_TaskIdle                            0x0800181c   Section        0  os_core.o(i.OS_TaskIdle)
    i.OS_TaskStat                            0x08001844   Section        0  os_core.o(i.OS_TaskStat)
    i.OS_TaskStatStkChk                      0x080018cc   Section        0  os_core.o(i.OS_TaskStatStkChk)
    i.OS_TaskStkClr                          0x08001908   Section        0  os_task.o(i.OS_TaskStkClr)
    i.RCC_APB1PeriphClockCmd                 0x08001924   Section        0  stm32f10x_rcc.o(i.RCC_APB1PeriphClockCmd)
    i.RCC_APB1PeriphResetCmd                 0x08001944   Section        0  stm32f10x_rcc.o(i.RCC_APB1PeriphResetCmd)
    i.RCC_APB2PeriphClockCmd                 0x08001964   Section        0  stm32f10x_rcc.o(i.RCC_APB2PeriphClockCmd)
    i.RCC_APB2PeriphResetCmd                 0x08001984   Section        0  stm32f10x_rcc.o(i.RCC_APB2PeriphResetCmd)
    i.RCC_GetClocksFreq                      0x080019a4   Section        0  stm32f10x_rcc.o(i.RCC_GetClocksFreq)
    i.RS485_Send_Data                        0x08001a78   Section        0  usart2.o(i.RS485_Send_Data)
    i.SPI_Cmd                                0x08001ac8   Section        0  stm32f10x_spi.o(i.SPI_Cmd)
    i.SPI_FLASH_BufferRead                   0x08001ae0   Section        0  bsp_spi_flash.o(i.SPI_FLASH_BufferRead)
    i.SPI_FLASH_BufferWrite                  0x08001b30   Section        0  bsp_spi_flash.o(i.SPI_FLASH_BufferWrite)
    i.SPI_FLASH_Init                         0x08001c54   Section        0  bsp_spi_flash.o(i.SPI_FLASH_Init)
    i.SPI_FLASH_PageWrite                    0x08001d10   Section        0  bsp_spi_flash.o(i.SPI_FLASH_PageWrite)
    i.SPI_FLASH_ReadDeviceID                 0x08001dac   Section        0  bsp_spi_flash.o(i.SPI_FLASH_ReadDeviceID)
    i.SPI_FLASH_ReadID                       0x08001de8   Section        0  bsp_spi_flash.o(i.SPI_FLASH_ReadID)
    i.SPI_FLASH_SectorErase                  0x08001e38   Section        0  bsp_spi_flash.o(i.SPI_FLASH_SectorErase)
    i.SPI_FLASH_SendByte                     0x08001e7c   Section        0  bsp_spi_flash.o(i.SPI_FLASH_SendByte)
    i.SPI_FLASH_WaitForWriteEnd              0x08001ef4   Section        0  bsp_spi_flash.o(i.SPI_FLASH_WaitForWriteEnd)
    i.SPI_FLASH_WriteEnable                  0x08001f28   Section        0  bsp_spi_flash.o(i.SPI_FLASH_WriteEnable)
    i.SPI_Flash_PowerDown                    0x08001f48   Section        0  bsp_spi_flash.o(i.SPI_Flash_PowerDown)
    i.SPI_Flash_WAKEUP                       0x08001f68   Section        0  bsp_spi_flash.o(i.SPI_Flash_WAKEUP)
    i.SPI_I2S_GetFlagStatus                  0x08001f88   Section        0  stm32f10x_spi.o(i.SPI_I2S_GetFlagStatus)
    i.SPI_I2S_ReceiveData                    0x08001f9a   Section        0  stm32f10x_spi.o(i.SPI_I2S_ReceiveData)
    i.SPI_I2S_SendData                       0x08001fa0   Section        0  stm32f10x_spi.o(i.SPI_I2S_SendData)
    i.SPI_Init                               0x08001fa4   Section        0  stm32f10x_spi.o(i.SPI_Init)
    i.SPI_TIMEOUT_UserCallback               0x08001fe0   Section        0  bsp_spi_flash.o(i.SPI_TIMEOUT_UserCallback)
    SPI_TIMEOUT_UserCallback                 0x08001fe1   Thumb Code    16  bsp_spi_flash.o(i.SPI_TIMEOUT_UserCallback)
    i.SVC_Handler                            0x08002020   Section        0  stm32f10x_it.o(i.SVC_Handler)
    i.SendComResponder                       0x08002022   Section        0  protocol485.o(i.SendComResponder)
    i.SetSysClock                            0x08002090   Section        0  system_stm32f10x.o(i.SetSysClock)
    SetSysClock                              0x08002091   Thumb Code     8  system_stm32f10x.o(i.SetSysClock)
    i.SetSysClockTo72                        0x08002098   Section        0  system_stm32f10x.o(i.SetSysClockTo72)
    SetSysClockTo72                          0x08002099   Thumb Code   214  system_stm32f10x.o(i.SetSysClockTo72)
    i.SysTick_CLKSourceConfig                0x08002178   Section        0  misc.o(i.SysTick_CLKSourceConfig)
    i.SysTick_Handler                        0x080021a0   Section        0  delay.o(i.SysTick_Handler)
    i.SystemInit                             0x080021bc   Section        0  system_stm32f10x.o(i.SystemInit)
    i.USART1_IRQHandler                      0x0800221c   Section        0  usart1.o(i.USART1_IRQHandler)
    i.USART2_IRQHandler                      0x080022bc   Section        0  usart2.o(i.USART2_IRQHandler)
    i.USART3_IRQHandler                      0x08002340   Section        0  usart3.o(i.USART3_IRQHandler)
    i.USART_ClearITPendingBit                0x080023ac   Section        0  stm32f10x_usart.o(i.USART_ClearITPendingBit)
    i.USART_Cmd                              0x080023ca   Section        0  stm32f10x_usart.o(i.USART_Cmd)
    i.USART_DeInit                           0x080023e4   Section        0  stm32f10x_usart.o(i.USART_DeInit)
    i.USART_GetFlagStatus                    0x08002480   Section        0  stm32f10x_usart.o(i.USART_GetFlagStatus)
    i.USART_GetITStatus                      0x0800249a   Section        0  stm32f10x_usart.o(i.USART_GetITStatus)
    i.USART_ITConfig                         0x080024ee   Section        0  stm32f10x_usart.o(i.USART_ITConfig)
    i.USART_Init                             0x08002538   Section        0  stm32f10x_usart.o(i.USART_Init)
    i.USART_ReceiveData                      0x08002610   Section        0  stm32f10x_usart.o(i.USART_ReceiveData)
    i.USART_SendData                         0x0800261a   Section        0  stm32f10x_usart.o(i.USART_SendData)
    i.UsageFault_Handler                     0x08002622   Section        0  stm32f10x_it.o(i.UsageFault_Handler)
    i._is_digit                              0x08002626   Section        0  __printf_wp.o(i._is_digit)
    i._sys_exit                              0x08002634   Section        0  usart3.o(i._sys_exit)
    i.closedoor                              0x08002638   Section        0  protocol485.o(i.closedoor)
    i.dealRecvUpperData                      0x08002654   Section        0  protocol485.o(i.dealRecvUpperData)
    i.delay_init                             0x08002724   Section        0  delay.o(i.delay_init)
    i.delay_osschedlock                      0x08002780   Section        0  delay.o(i.delay_osschedlock)
    i.delay_osschedunlock                    0x08002788   Section        0  delay.o(i.delay_osschedunlock)
    i.delay_us                               0x08002790   Section        0  delay.o(i.delay_us)
    i.event_task                             0x080027ec   Section        0  main.o(i.event_task)
    i.flash_read                             0x080028a0   Section        0  bsp_spi_flash.o(i.flash_read)
    i.flash_write                            0x080029a8   Section        0  bsp_spi_flash.o(i.flash_write)
    i.fputc                                  0x08002a60   Section        0  usart3.o(i.fputc)
    i.getDustSettings                        0x08002a7c   Section        0  protocol485.o(i.getDustSettings)
    i.getMaopiWeight                         0x08002a84   Section        0  hx711.o(i.getMaopiWeight)
    i.getOverState                           0x08002ab8   Section        0  protocol485.o(i.getOverState)
    i.getUart1RecvData                       0x08002b00   Section        0  usart1.o(i.getUart1RecvData)
    i.main                                   0x08002b08   Section        0  main.o(i.main)
    i.openDoorFromMast                       0x08002b5c   Section        0  protocol485.o(i.openDoorFromMast)
    i.opendoor                               0x08002bec   Section        0  protocol485.o(i.opendoor)
    i.paramInit                              0x08002c38   Section        0  protocol485.o(i.paramInit)
    i.pinInit                                0x08002c6c   Section        0  main.o(i.pinInit)
    i.protocol485_task                       0x08002e40   Section        0  main.o(i.protocol485_task)
    i.recvData_485                           0x08002f40   Section        0  protocol485.o(i.recvData_485)
    i.revObjectData                          0x08002fcc   Section        0  protocol485.o(i.revObjectData)
    i.sendOnceEventData                      0x080030bc   Section        0  protocol485.o(i.sendOnceEventData)
    i.sendRealData                           0x08003156   Section        0  protocol485.o(i.sendRealData)
    i.start_task                             0x080031f4   Section        0  main.o(i.start_task)
    i.uart1_init                             0x08003268   Section        0  usart1.o(i.uart1_init)
    i.uart2_init                             0x08003330   Section        0  usart2.o(i.uart2_init)
    i.uart3_init                             0x08003400   Section        0  usart3.o(i.uart3_init)
    x$fpl$dretinf                            0x080034c4   Section       12  dretinf.o(x$fpl$dretinf)
    x$fpl$f2d                                0x080034d0   Section       86  f2d.o(x$fpl$f2d)
    x$fpl$fcmpinf                            0x08003526   Section       24  fcmpi.o(x$fpl$fcmpinf)
    x$fpl$fdiv                               0x08003540   Section      388  fdiv.o(x$fpl$fdiv)
    _fdiv1                                   0x08003541   Thumb Code     0  fdiv.o(x$fpl$fdiv)
    x$fpl$feqf                               0x080036c4   Section      104  feqf.o(x$fpl$feqf)
    x$fpl$ffix                               0x0800372c   Section       54  ffix.o(x$fpl$ffix)
    x$fpl$ffixu                              0x08003764   Section       62  ffixu.o(x$fpl$ffixu)
    x$fpl$fflt                               0x080037a4   Section       48  fflt_clz.o(x$fpl$fflt)
    x$fpl$ffltu                              0x080037d4   Section       38  fflt_clz.o(x$fpl$ffltu)
    x$fpl$fnaninf                            0x080037fa   Section      140  fnaninf.o(x$fpl$fnaninf)
    x$fpl$fretinf                            0x08003886   Section       10  fretinf.o(x$fpl$fretinf)
    .constdata                               0x08003890   Section      256  os_core.o(.constdata)
    x$fpl$usenofp                            0x08003890   Section        0  usenofp.o(x$fpl$usenofp)
    .constdata                               0x08003990   Section       17  __printf_flags_ss_wp.o(.constdata)
    maptable                                 0x08003990   Data          17  __printf_flags_ss_wp.o(.constdata)
    .data                                    0x20000000   Section        2  usart1.o(.data)
    .data                                    0x20000002   Section        4  usart2.o(.data)
    .data                                    0x20000008   Section        6  usart3.o(.data)
    .data                                    0x20000010   Section       48  bsp_spi_flash.o(.data)
    SPITimeout                               0x20000010   Data           4  bsp_spi_flash.o(.data)
    .data                                    0x20000040   Section      512  protocol485.o(.data)
    .data                                    0x20000240   Section        4  delay.o(.data)
    fac_us                                   0x20000240   Data           1  delay.o(.data)
    fac_ms                                   0x20000242   Data           2  delay.o(.data)
    .data                                    0x20000244   Section       20  system_stm32f10x.o(.data)
    .data                                    0x20000258   Section       20  stm32f10x_rcc.o(.data)
    APBAHBPrescTable                         0x20000258   Data          16  stm32f10x_rcc.o(.data)
    ADCPrescTable                            0x20000268   Data           4  stm32f10x_rcc.o(.data)
    .data                                    0x2000026c   Section       72  os_core.o(.data)
    .bss                                     0x200002c0   Section     1824  main.o(.bss)
    .bss                                     0x200009e0   Section     1025  usart1.o(.bss)
    uart1RecvData                            0x20000be0   Data         513  usart1.o(.bss)
    .bss                                     0x20000de1   Section      456  usart2.o(.bss)
    .bss                                     0x20000fa9   Section      712  usart3.o(.bss)
    .bss                                     0x20001274   Section       44  protocol485.o(.bss)
    .bss                                     0x200012a0   Section     2688  os_core.o(.bss)
    .bss                                     0x20001d20   Section       96  libspace.o(.bss)
    HEAP                                     0x20001d80   Section      512  startup_stm32f10x_hd.o(HEAP)
    Heap_Mem                                 0x20001d80   Data         512  startup_stm32f10x_hd.o(HEAP)
    STACK                                    0x20001f80   Section     1024  startup_stm32f10x_hd.o(STACK)
    Stack_Mem                                0x20001f80   Data        1024  startup_stm32f10x_hd.o(STACK)
    __initial_sp                             0x20002380   Data           0  startup_stm32f10x_hd.o(STACK)

    Global Symbols

    Symbol Name                              Value     Ov Type        Size  Object(Section)

    BuildAttributes$$THM_ISAv4$P$D$K$B$S$PE$A:L22UL41UL21$X:L11$S22US41US21$IEEE1$IW$USESV6$~STKCKD$USESV7$~SHL$OTIME$ROPI$IEEEJ$EBA8$UX$STANDARDLIB$REQ8$PRES8$EABIv2 0x00000000   Number         0  anon$$obj.o ABSOLUTE
    __ARM_use_no_argv                        0x00000000   Number         0  main.o ABSOLUTE
    _printf_flags                            0x00000000   Number         0  printf_stubs.o ABSOLUTE
    _printf_return_value                     0x00000000   Number         0  printf_stubs.o ABSOLUTE
    _printf_sizespec                         0x00000000   Number         0  printf_stubs.o ABSOLUTE
    _printf_widthprec                        0x00000000   Number         0  printf_stubs.o ABSOLUTE
    __ARM_exceptions_init                     - Undefined Weak Reference
    __alloca_initialize                       - Undefined Weak Reference
    __arm_preinit_                            - Undefined Weak Reference
    __cpp_initialize__aeabi_                  - Undefined Weak Reference
    __cxa_finalize                            - Undefined Weak Reference
    __sigvec_lookup                           - Undefined Weak Reference
    _atexit_init                              - Undefined Weak Reference
    _call_atexit_fns                          - Undefined Weak Reference
    _clock_init                               - Undefined Weak Reference
    _fp_trap_init                             - Undefined Weak Reference
    _fp_trap_shutdown                         - Undefined Weak Reference
    _get_lc_collate                           - Undefined Weak Reference
    _get_lc_monetary                          - Undefined Weak Reference
    _get_lc_time                              - Undefined Weak Reference
    _getenv_init                              - Undefined Weak Reference
    _handle_redirection                       - Undefined Weak Reference
    _init_alloc                               - Undefined Weak Reference
    _init_user_alloc                          - Undefined Weak Reference
    _initio                                   - Undefined Weak Reference
    _mutex_acquire                            - Undefined Weak Reference
    _mutex_release                            - Undefined Weak Reference
    _printf_mbtowc                            - Undefined Weak Reference
    _printf_wc                                - Undefined Weak Reference
    _rand_init                                - Undefined Weak Reference
    _signal_finish                            - Undefined Weak Reference
    _signal_init                              - Undefined Weak Reference
    _terminate_alloc                          - Undefined Weak Reference
    _terminate_user_alloc                     - Undefined Weak Reference
    _terminateio                              - Undefined Weak Reference
    __Vectors_Size                           0x00000130   Number         0  startup_stm32f10x_hd.o ABSOLUTE
    __Vectors                                0x08000000   Data           4  startup_stm32f10x_hd.o(RESET)
    __Vectors_End                            0x08000130   Data           0  startup_stm32f10x_hd.o(RESET)
    __main                                   0x08000131   Thumb Code     8  __main.o(!!!main)
    __scatterload                            0x08000139   Thumb Code     0  __scatter.o(!!!scatter)
    __scatterload_rt2                        0x08000139   Thumb Code    44  __scatter.o(!!!scatter)
    __scatterload_rt2_thumb_only             0x08000139   Thumb Code     0  __scatter.o(!!!scatter)
    __scatterload_null                       0x08000147   Thumb Code     0  __scatter.o(!!!scatter)
    __decompress                             0x0800016d   Thumb Code    90  __dczerorl2.o(!!dczerorl2)
    __decompress1                            0x0800016d   Thumb Code     0  __dczerorl2.o(!!dczerorl2)
    __scatterload_zeroinit                   0x080001c9   Thumb Code    28  __scatter_zi.o(!!handler_zi)
    _printf_d                                0x080001e5   Thumb Code     0  _printf_d.o(.ARM.Collect$$_printf_percent$$00000009)
    _printf_percent                          0x080001e5   Thumb Code     0  _printf_percent.o(.ARM.Collect$$_printf_percent$$00000000)
    _printf_percent_end                      0x080001eb   Thumb Code     0  _printf_percent_end.o(.ARM.Collect$$_printf_percent$$00000017)
    __rt_lib_init                            0x080001ef   Thumb Code     0  libinit.o(.ARM.Collect$$libinit$$00000000)
    __rt_lib_init_alloca_1                   0x080001f1   Thumb Code     0  libinit2.o(.ARM.Collect$$libinit$$0000002E)
    __rt_lib_init_argv_1                     0x080001f1   Thumb Code     0  libinit2.o(.ARM.Collect$$libinit$$0000002C)
    __rt_lib_init_atexit_1                   0x080001f1   Thumb Code     0  libinit2.o(.ARM.Collect$$libinit$$0000001B)
    __rt_lib_init_clock_1                    0x080001f1   Thumb Code     0  libinit2.o(.ARM.Collect$$libinit$$00000021)
    __rt_lib_init_cpp_1                      0x080001f1   Thumb Code     0  libinit2.o(.ARM.Collect$$libinit$$00000032)
    __rt_lib_init_exceptions_1               0x080001f1   Thumb Code     0  libinit2.o(.ARM.Collect$$libinit$$00000030)
    __rt_lib_init_fp_1                       0x080001f1   Thumb Code     0  libinit2.o(.ARM.Collect$$libinit$$00000002)
    __rt_lib_init_fp_trap_1                  0x080001f1   Thumb Code     0  libinit2.o(.ARM.Collect$$libinit$$0000001F)
    __rt_lib_init_getenv_1                   0x080001f1   Thumb Code     0  libinit2.o(.ARM.Collect$$libinit$$00000023)
    __rt_lib_init_heap_1                     0x080001f1   Thumb Code     0  libinit2.o(.ARM.Collect$$libinit$$0000000A)
    __rt_lib_init_lc_collate_1               0x080001f1   Thumb Code     0  libinit2.o(.ARM.Collect$$libinit$$00000011)
    __rt_lib_init_lc_ctype_1                 0x080001f1   Thumb Code     0  libinit2.o(.ARM.Collect$$libinit$$00000013)
    __rt_lib_init_lc_monetary_1              0x080001f1   Thumb Code     0  libinit2.o(.ARM.Collect$$libinit$$00000015)
    __rt_lib_init_lc_numeric_1               0x080001f1   Thumb Code     0  libinit2.o(.ARM.Collect$$libinit$$00000017)
    __rt_lib_init_lc_time_1                  0x080001f1   Thumb Code     0  libinit2.o(.ARM.Collect$$libinit$$00000019)
    __rt_lib_init_preinit_1                  0x080001f1   Thumb Code     0  libinit2.o(.ARM.Collect$$libinit$$00000004)
    __rt_lib_init_rand_1                     0x080001f1   Thumb Code     0  libinit2.o(.ARM.Collect$$libinit$$0000000E)
    __rt_lib_init_return                     0x080001f1   Thumb Code     0  libinit2.o(.ARM.Collect$$libinit$$00000033)
    __rt_lib_init_signal_1                   0x080001f1   Thumb Code     0  libinit2.o(.ARM.Collect$$libinit$$0000001D)
    __rt_lib_init_stdio_1                    0x080001f1   Thumb Code     0  libinit2.o(.ARM.Collect$$libinit$$00000025)
    __rt_lib_init_user_alloc_1               0x080001f1   Thumb Code     0  libinit2.o(.ARM.Collect$$libinit$$0000000C)
    __rt_lib_shutdown                        0x080001f3   Thumb Code     0  libshutdown.o(.ARM.Collect$$libshutdown$$00000000)
    __rt_lib_shutdown_cpp_1                  0x080001f5   Thumb Code     0  libshutdown2.o(.ARM.Collect$$libshutdown$$00000002)
    __rt_lib_shutdown_fp_trap_1              0x080001f5   Thumb Code     0  libshutdown2.o(.ARM.Collect$$libshutdown$$00000007)
    __rt_lib_shutdown_heap_1                 0x080001f5   Thumb Code     0  libshutdown2.o(.ARM.Collect$$libshutdown$$0000000F)
    __rt_lib_shutdown_return                 0x080001f5   Thumb Code     0  libshutdown2.o(.ARM.Collect$$libshutdown$$00000010)
    __rt_lib_shutdown_signal_1               0x080001f5   Thumb Code     0  libshutdown2.o(.ARM.Collect$$libshutdown$$0000000A)
    __rt_lib_shutdown_stdio_1                0x080001f5   Thumb Code     0  libshutdown2.o(.ARM.Collect$$libshutdown$$00000004)
    __rt_lib_shutdown_user_alloc_1           0x080001f5   Thumb Code     0  libshutdown2.o(.ARM.Collect$$libshutdown$$0000000C)
    __rt_entry                               0x080001f7   Thumb Code     0  __rtentry.o(.ARM.Collect$$rtentry$$00000000)
    __rt_entry_presh_1                       0x080001f7   Thumb Code     0  __rtentry2.o(.ARM.Collect$$rtentry$$00000002)
    __rt_entry_sh                            0x080001f7   Thumb Code     0  __rtentry4.o(.ARM.Collect$$rtentry$$00000004)
    __rt_entry_li                            0x080001fd   Thumb Code     0  __rtentry2.o(.ARM.Collect$$rtentry$$0000000A)
    __rt_entry_postsh_1                      0x080001fd   Thumb Code     0  __rtentry2.o(.ARM.Collect$$rtentry$$00000009)
    __rt_entry_main                          0x08000201   Thumb Code     0  __rtentry2.o(.ARM.Collect$$rtentry$$0000000D)
    __rt_entry_postli_1                      0x08000201   Thumb Code     0  __rtentry2.o(.ARM.Collect$$rtentry$$0000000C)
    __rt_exit                                0x08000209   Thumb Code     0  rtexit.o(.ARM.Collect$$rtexit$$00000000)
    __rt_exit_ls                             0x0800020b   Thumb Code     0  rtexit2.o(.ARM.Collect$$rtexit$$00000003)
    __rt_exit_prels_1                        0x0800020b   Thumb Code     0  rtexit2.o(.ARM.Collect$$rtexit$$00000002)
    __rt_exit_exit                           0x0800020f   Thumb Code     0  rtexit2.o(.ARM.Collect$$rtexit$$00000004)
    Reset_Handler                            0x08000215   Thumb Code     8  startup_stm32f10x_hd.o(.text)
    ADC1_2_IRQHandler                        0x0800022f   Thumb Code     0  startup_stm32f10x_hd.o(.text)
    ADC3_IRQHandler                          0x0800022f   Thumb Code     0  startup_stm32f10x_hd.o(.text)
    CAN1_RX1_IRQHandler                      0x0800022f   Thumb Code     0  startup_stm32f10x_hd.o(.text)
    CAN1_SCE_IRQHandler                      0x0800022f   Thumb Code     0  startup_stm32f10x_hd.o(.text)
    DMA1_Channel1_IRQHandler                 0x0800022f   Thumb Code     0  startup_stm32f10x_hd.o(.text)
    DMA1_Channel2_IRQHandler                 0x0800022f   Thumb Code     0  startup_stm32f10x_hd.o(.text)
    DMA1_Channel3_IRQHandler                 0x0800022f   Thumb Code     0  startup_stm32f10x_hd.o(.text)
    DMA1_Channel4_IRQHandler                 0x0800022f   Thumb Code     0  startup_stm32f10x_hd.o(.text)
    DMA1_Channel5_IRQHandler                 0x0800022f   Thumb Code     0  startup_stm32f10x_hd.o(.text)
    DMA1_Channel6_IRQHandler                 0x0800022f   Thumb Code     0  startup_stm32f10x_hd.o(.text)
    DMA1_Channel7_IRQHandler                 0x0800022f   Thumb Code     0  startup_stm32f10x_hd.o(.text)
    DMA2_Channel1_IRQHandler                 0x0800022f   Thumb Code     0  startup_stm32f10x_hd.o(.text)
    DMA2_Channel2_IRQHandler                 0x0800022f   Thumb Code     0  startup_stm32f10x_hd.o(.text)
    DMA2_Channel3_IRQHandler                 0x0800022f   Thumb Code     0  startup_stm32f10x_hd.o(.text)
    DMA2_Channel4_5_IRQHandler               0x0800022f   Thumb Code     0  startup_stm32f10x_hd.o(.text)
    EXTI0_IRQHandler                         0x0800022f   Thumb Code     0  startup_stm32f10x_hd.o(.text)
    EXTI15_10_IRQHandler                     0x0800022f   Thumb Code     0  startup_stm32f10x_hd.o(.text)
    EXTI1_IRQHandler                         0x0800022f   Thumb Code     0  startup_stm32f10x_hd.o(.text)
    EXTI2_IRQHandler                         0x0800022f   Thumb Code     0  startup_stm32f10x_hd.o(.text)
    EXTI3_IRQHandler                         0x0800022f   Thumb Code     0  startup_stm32f10x_hd.o(.text)
    EXTI4_IRQHandler                         0x0800022f   Thumb Code     0  startup_stm32f10x_hd.o(.text)
    EXTI9_5_IRQHandler                       0x0800022f   Thumb Code     0  startup_stm32f10x_hd.o(.text)
    FLASH_IRQHandler                         0x0800022f   Thumb Code     0  startup_stm32f10x_hd.o(.text)
    FSMC_IRQHandler                          0x0800022f   Thumb Code     0  startup_stm32f10x_hd.o(.text)
    I2C1_ER_IRQHandler                       0x0800022f   Thumb Code     0  startup_stm32f10x_hd.o(.text)
    I2C1_EV_IRQHandler                       0x0800022f   Thumb Code     0  startup_stm32f10x_hd.o(.text)
    I2C2_ER_IRQHandler                       0x0800022f   Thumb Code     0  startup_stm32f10x_hd.o(.text)
    I2C2_EV_IRQHandler                       0x0800022f   Thumb Code     0  startup_stm32f10x_hd.o(.text)
    PVD_IRQHandler                           0x0800022f   Thumb Code     0  startup_stm32f10x_hd.o(.text)
    RCC_IRQHandler                           0x0800022f   Thumb Code     0  startup_stm32f10x_hd.o(.text)
    RTCAlarm_IRQHandler                      0x0800022f   Thumb Code     0  startup_stm32f10x_hd.o(.text)
    RTC_IRQHandler                           0x0800022f   Thumb Code     0  startup_stm32f10x_hd.o(.text)
    SDIO_IRQHandler                          0x0800022f   Thumb Code     0  startup_stm32f10x_hd.o(.text)
    SPI1_IRQHandler                          0x0800022f   Thumb Code     0  startup_stm32f10x_hd.o(.text)
    SPI2_IRQHandler                          0x0800022f   Thumb Code     0  startup_stm32f10x_hd.o(.text)
    SPI3_IRQHandler                          0x0800022f   Thumb Code     0  startup_stm32f10x_hd.o(.text)
    TAMPER_IRQHandler                        0x0800022f   Thumb Code     0  startup_stm32f10x_hd.o(.text)
    TIM1_BRK_IRQHandler                      0x0800022f   Thumb Code     0  startup_stm32f10x_hd.o(.text)
    TIM1_CC_IRQHandler                       0x0800022f   Thumb Code     0  startup_stm32f10x_hd.o(.text)
    TIM1_TRG_COM_IRQHandler                  0x0800022f   Thumb Code     0  startup_stm32f10x_hd.o(.text)
    TIM1_UP_IRQHandler                       0x0800022f   Thumb Code     0  startup_stm32f10x_hd.o(.text)
    TIM2_IRQHandler                          0x0800022f   Thumb Code     0  startup_stm32f10x_hd.o(.text)
    TIM3_IRQHandler                          0x0800022f   Thumb Code     0  startup_stm32f10x_hd.o(.text)
    TIM4_IRQHandler                          0x0800022f   Thumb Code     0  startup_stm32f10x_hd.o(.text)
    TIM5_IRQHandler                          0x0800022f   Thumb Code     0  startup_stm32f10x_hd.o(.text)
    TIM6_IRQHandler                          0x0800022f   Thumb Code     0  startup_stm32f10x_hd.o(.text)
    TIM7_IRQHandler                          0x0800022f   Thumb Code     0  startup_stm32f10x_hd.o(.text)
    TIM8_BRK_IRQHandler                      0x0800022f   Thumb Code     0  startup_stm32f10x_hd.o(.text)
    TIM8_CC_IRQHandler                       0x0800022f   Thumb Code     0  startup_stm32f10x_hd.o(.text)
    TIM8_TRG_COM_IRQHandler                  0x0800022f   Thumb Code     0  startup_stm32f10x_hd.o(.text)
    TIM8_UP_IRQHandler                       0x0800022f   Thumb Code     0  startup_stm32f10x_hd.o(.text)
    UART4_IRQHandler                         0x0800022f   Thumb Code     0  startup_stm32f10x_hd.o(.text)
    UART5_IRQHandler                         0x0800022f   Thumb Code     0  startup_stm32f10x_hd.o(.text)
    USBWakeUp_IRQHandler                     0x0800022f   Thumb Code     0  startup_stm32f10x_hd.o(.text)
    USB_HP_CAN1_TX_IRQHandler                0x0800022f   Thumb Code     0  startup_stm32f10x_hd.o(.text)
    USB_LP_CAN1_RX0_IRQHandler               0x0800022f   Thumb Code     0  startup_stm32f10x_hd.o(.text)
    WWDG_IRQHandler                          0x0800022f   Thumb Code     0  startup_stm32f10x_hd.o(.text)
    __user_initial_stackheap                 0x08000231   Thumb Code     0  startup_stm32f10x_hd.o(.text)
    OS_CPU_SR_Save                           0x08000255   Thumb Code     0  os_cpu_a.o(.text)
    OS_CPU_SR_Restore                        0x0800025d   Thumb Code     0  os_cpu_a.o(.text)
    OSStartHighRdy                           0x08000263   Thumb Code     0  os_cpu_a.o(.text)
    OSCtxSw                                  0x08000285   Thumb Code     0  os_cpu_a.o(.text)
    OSIntCtxSw                               0x08000293   Thumb Code     0  os_cpu_a.o(.text)
    PendSV_Handler                           0x080002a3   Thumb Code     0  os_cpu_a.o(.text)
    __use_no_semihosting                     0x08000309   Thumb Code     2  use_no_semi_2.o(.text)
    __2printf                                0x0800030d   Thumb Code    20  __2printf.o(.text)
    _printf_int_dec                          0x08000325   Thumb Code   104  _printf_dec.o(.text)
    __printf                                 0x0800039d   Thumb Code   388  __printf_flags_ss_wp.o(.text)
    __aeabi_memcpy                           0x08000525   Thumb Code     0  rt_memcpy_v6.o(.text)
    __rt_memcpy                              0x08000525   Thumb Code   138  rt_memcpy_v6.o(.text)
    _memcpy_lastbytes                        0x0800058b   Thumb Code     0  rt_memcpy_v6.o(.text)
    __aeabi_memclr                           0x080005af   Thumb Code     0  rt_memclr.o(.text)
    __rt_memclr                              0x080005af   Thumb Code    68  rt_memclr.o(.text)
    _memset                                  0x080005b3   Thumb Code     0  rt_memclr.o(.text)
    __aeabi_memclr4                          0x080005f3   Thumb Code     0  rt_memclr_w.o(.text)
    __aeabi_memclr8                          0x080005f3   Thumb Code     0  rt_memclr_w.o(.text)
    __rt_memclr_w                            0x080005f3   Thumb Code    78  rt_memclr_w.o(.text)
    _memset_w                                0x080005f7   Thumb Code     0  rt_memclr_w.o(.text)
    __use_two_region_memory                  0x08000641   Thumb Code     2  heapauxi.o(.text)
    __rt_heap_escrow$2region                 0x08000643   Thumb Code     2  heapauxi.o(.text)
    __rt_heap_expand$2region                 0x08000645   Thumb Code     2  heapauxi.o(.text)
    __I$use$semihosting                      0x08000647   Thumb Code     0  use_no_semi.o(.text)
    __use_no_semihosting_swi                 0x08000647   Thumb Code     2  use_no_semi.o(.text)
    _printf_int_common                       0x08000649   Thumb Code   178  _printf_intcommon.o(.text)
    _printf_char_common                      0x08000707   Thumb Code    32  _printf_char_common.o(.text)
    _printf_char_file                        0x0800072d   Thumb Code    32  _printf_char_file.o(.text)
    __aeabi_memcpy4                          0x08000751   Thumb Code     0  rt_memcpy_w.o(.text)
    __aeabi_memcpy8                          0x08000751   Thumb Code     0  rt_memcpy_w.o(.text)
    __rt_memcpy_w                            0x08000751   Thumb Code   100  rt_memcpy_w.o(.text)
    _memcpy_lastbytes_aligned                0x08000799   Thumb Code     0  rt_memcpy_w.o(.text)
    ferror                                   0x080007b5   Thumb Code     8  ferror.o(.text)
    __user_setup_stackheap                   0x080007bd   Thumb Code    74  sys_stackheap_outer.o(.text)
    exit                                     0x08000807   Thumb Code    18  exit.o(.text)
    __user_libspace                          0x08000819   Thumb Code     8  libspace.o(.text)
    __user_perproc_libspace                  0x08000819   Thumb Code     0  libspace.o(.text)
    __user_perthread_libspace                0x08000819   Thumb Code     0  libspace.o(.text)
    BusFault_Handler                         0x08000821   Thumb Code     4  stm32f10x_it.o(i.BusFault_Handler)
    CalculateCrc16                           0x08000825   Thumb Code    46  protocol485.o(i.CalculateCrc16)
    DebugMon_Handler                         0x0800085d   Thumb Code     2  stm32f10x_it.o(i.DebugMon_Handler)
    GPIO_Init                                0x0800085f   Thumb Code   278  stm32f10x_gpio.o(i.GPIO_Init)
    GPIO_ReadInputDataBit                    0x08000975   Thumb Code    18  stm32f10x_gpio.o(i.GPIO_ReadInputDataBit)
    GPIO_ResetBits                           0x08000987   Thumb Code     4  stm32f10x_gpio.o(i.GPIO_ResetBits)
    GPIO_SetBits                             0x0800098b   Thumb Code     4  stm32f10x_gpio.o(i.GPIO_SetBits)
    Get_Weight                               0x08000991   Thumb Code    90  hx711.o(i.Get_Weight)
    HX711_Read                               0x08000a31   Thumb Code   224  hx711.o(i.HX711_Read)
    HardFault_Handler                        0x08000b19   Thumb Code     4  stm32f10x_it.o(i.HardFault_Handler)
    Init_HX711pin                            0x08000b1d   Thumb Code    74  hx711.o(i.Init_HX711pin)
    LED_Init                                 0x08000b6d   Thumb Code    68  led.o(i.LED_Init)
    MemManage_Handler                        0x08000bb9   Thumb Code     4  stm32f10x_it.o(i.MemManage_Handler)
    NMI_Handler                              0x08000bbd   Thumb Code     2  stm32f10x_it.o(i.NMI_Handler)
    NVIC_Init                                0x08000bc1   Thumb Code   100  misc.o(i.NVIC_Init)
    NVIC_PriorityGroupConfig                 0x08000c31   Thumb Code    10  misc.o(i.NVIC_PriorityGroupConfig)
    OSInit                                   0x08000c45   Thumb Code    44  os_core.o(i.OSInit)
    OSInitHookBegin                          0x08000c71   Thumb Code     2  os_cpu_c.o(i.OSInitHookBegin)
    OSInitHookEnd                            0x08000c73   Thumb Code     2  os_cpu_c.o(i.OSInitHookEnd)
    OSIntEnter                               0x08000c75   Thumb Code    28  os_core.o(i.OSIntEnter)
    OSIntExit                                0x08000c99   Thumb Code   112  os_core.o(i.OSIntExit)
    OSSchedLock                              0x08000d29   Thumb Code    50  os_core.o(i.OSSchedLock)
    OSSchedUnlock                            0x08000d69   Thumb Code    82  os_core.o(i.OSSchedUnlock)
    OSStart                                  0x08000dc9   Thumb Code    48  os_core.o(i.OSStart)
    OSTCBInitHook                            0x08000e11   Thumb Code     2  os_cpu_c.o(i.OSTCBInitHook)
    OSTaskCreate                             0x08000e15   Thumb Code   148  os_task.o(i.OSTaskCreate)
    OSTaskCreateExt                          0x08000eb5   Thumb Code   170  os_task.o(i.OSTaskCreateExt)
    OSTaskCreateHook                         0x08000f6d   Thumb Code     2  os_cpu_c.o(i.OSTaskCreateHook)
    OSTaskIdleHook                           0x08000f6f   Thumb Code     2  os_cpu_c.o(i.OSTaskIdleHook)
    OSTaskNameSet                            0x08000f71   Thumb Code    98  os_task.o(i.OSTaskNameSet)
    OSTaskStatHook                           0x08000fe1   Thumb Code     2  os_cpu_c.o(i.OSTaskStatHook)
    OSTaskStkChk                             0x08000fe5   Thumb Code   132  os_task.o(i.OSTaskStkChk)
    OSTaskStkInit                            0x08001071   Thumb Code   154  os_cpu_c.o(i.OSTaskStkInit)
    OSTaskSuspend                            0x0800110d   Thumb Code   152  os_task.o(i.OSTaskSuspend)
    OSTaskSwHook                             0x080011b5   Thumb Code     2  os_cpu_c.o(i.OSTaskSwHook)
    OSTimeDly                                0x080011b9   Thumb Code   100  os_time.o(i.OSTimeDly)
    OSTimeDlyHMSM                            0x08001231   Thumb Code    86  os_time.o(i.OSTimeDlyHMSM)
    OSTimeTick                               0x08001291   Thumb Code   210  os_core.o(i.OSTimeTick)
    OSTimeTickHook                           0x0800137d   Thumb Code     2  os_cpu_c.o(i.OSTimeTickHook)
    OS_FlagInit                              0x08001381   Thumb Code    74  os_flag.o(i.OS_FlagInit)
    OS_MemClr                                0x080015e5   Thumb Code    18  os_core.o(i.OS_MemClr)
    OS_QInit                                 0x080015f9   Thumb Code    72  os_q.o(i.OS_QInit)
    OS_Sched                                 0x08001649   Thumb Code    88  os_core.o(i.OS_Sched)
    OS_TCBInit                               0x080016e9   Thumb Code   278  os_core.o(i.OS_TCBInit)
    OS_TaskIdle                              0x0800181d   Thumb Code    34  os_core.o(i.OS_TaskIdle)
    OS_TaskStat                              0x08001845   Thumb Code   116  os_core.o(i.OS_TaskStat)
    OS_TaskStatStkChk                        0x080018cd   Thumb Code    54  os_core.o(i.OS_TaskStatStkChk)
    OS_TaskStkClr                            0x08001909   Thumb Code    26  os_task.o(i.OS_TaskStkClr)
    RCC_APB1PeriphClockCmd                   0x08001925   Thumb Code    26  stm32f10x_rcc.o(i.RCC_APB1PeriphClockCmd)
    RCC_APB1PeriphResetCmd                   0x08001945   Thumb Code    26  stm32f10x_rcc.o(i.RCC_APB1PeriphResetCmd)
    RCC_APB2PeriphClockCmd                   0x08001965   Thumb Code    26  stm32f10x_rcc.o(i.RCC_APB2PeriphClockCmd)
    RCC_APB2PeriphResetCmd                   0x08001985   Thumb Code    26  stm32f10x_rcc.o(i.RCC_APB2PeriphResetCmd)
    RCC_GetClocksFreq                        0x080019a5   Thumb Code   192  stm32f10x_rcc.o(i.RCC_GetClocksFreq)
    RS485_Send_Data                          0x08001a79   Thumb Code    72  usart2.o(i.RS485_Send_Data)
    SPI_Cmd                                  0x08001ac9   Thumb Code    24  stm32f10x_spi.o(i.SPI_Cmd)
    SPI_FLASH_BufferRead                     0x08001ae1   Thumb Code    76  bsp_spi_flash.o(i.SPI_FLASH_BufferRead)
    SPI_FLASH_BufferWrite                    0x08001b31   Thumb Code   290  bsp_spi_flash.o(i.SPI_FLASH_BufferWrite)
    SPI_FLASH_Init                           0x08001c55   Thumb Code   178  bsp_spi_flash.o(i.SPI_FLASH_Init)
    SPI_FLASH_PageWrite                      0x08001d11   Thumb Code    98  bsp_spi_flash.o(i.SPI_FLASH_PageWrite)
    SPI_FLASH_ReadDeviceID                   0x08001dad   Thumb Code    56  bsp_spi_flash.o(i.SPI_FLASH_ReadDeviceID)
    SPI_FLASH_ReadID                         0x08001de9   Thumb Code    74  bsp_spi_flash.o(i.SPI_FLASH_ReadID)
    SPI_FLASH_SectorErase                    0x08001e39   Thumb Code    62  bsp_spi_flash.o(i.SPI_FLASH_SectorErase)
    SPI_FLASH_SendByte                       0x08001e7d   Thumb Code   110  bsp_spi_flash.o(i.SPI_FLASH_SendByte)
    SPI_FLASH_WaitForWriteEnd                0x08001ef5   Thumb Code    46  bsp_spi_flash.o(i.SPI_FLASH_WaitForWriteEnd)
    SPI_FLASH_WriteEnable                    0x08001f29   Thumb Code    26  bsp_spi_flash.o(i.SPI_FLASH_WriteEnable)
    SPI_Flash_PowerDown                      0x08001f49   Thumb Code    26  bsp_spi_flash.o(i.SPI_Flash_PowerDown)
    SPI_Flash_WAKEUP                         0x08001f69   Thumb Code    26  bsp_spi_flash.o(i.SPI_Flash_WAKEUP)
    SPI_I2S_GetFlagStatus                    0x08001f89   Thumb Code    18  stm32f10x_spi.o(i.SPI_I2S_GetFlagStatus)
    SPI_I2S_ReceiveData                      0x08001f9b   Thumb Code     6  stm32f10x_spi.o(i.SPI_I2S_ReceiveData)
    SPI_I2S_SendData                         0x08001fa1   Thumb Code     4  stm32f10x_spi.o(i.SPI_I2S_SendData)
    SPI_Init                                 0x08001fa5   Thumb Code    60  stm32f10x_spi.o(i.SPI_Init)
    SVC_Handler                              0x08002021   Thumb Code     2  stm32f10x_it.o(i.SVC_Handler)
    SendComResponder                         0x08002023   Thumb Code   110  protocol485.o(i.SendComResponder)
    SysTick_CLKSourceConfig                  0x08002179   Thumb Code    40  misc.o(i.SysTick_CLKSourceConfig)
    SysTick_Handler                          0x080021a1   Thumb Code    24  delay.o(i.SysTick_Handler)
    SystemInit                               0x080021bd   Thumb Code    78  system_stm32f10x.o(i.SystemInit)
    USART1_IRQHandler                        0x0800221d   Thumb Code   142  usart1.o(i.USART1_IRQHandler)
    USART2_IRQHandler                        0x080022bd   Thumb Code   120  usart2.o(i.USART2_IRQHandler)
    USART3_IRQHandler                        0x08002341   Thumb Code    94  usart3.o(i.USART3_IRQHandler)
    USART_ClearITPendingBit                  0x080023ad   Thumb Code    30  stm32f10x_usart.o(i.USART_ClearITPendingBit)
    USART_Cmd                                0x080023cb   Thumb Code    24  stm32f10x_usart.o(i.USART_Cmd)
    USART_DeInit                             0x080023e5   Thumb Code   134  stm32f10x_usart.o(i.USART_DeInit)
    USART_GetFlagStatus                      0x08002481   Thumb Code    26  stm32f10x_usart.o(i.USART_GetFlagStatus)
    USART_GetITStatus                        0x0800249b   Thumb Code    84  stm32f10x_usart.o(i.USART_GetITStatus)
    USART_ITConfig                           0x080024ef   Thumb Code    74  stm32f10x_usart.o(i.USART_ITConfig)
    USART_Init                               0x08002539   Thumb Code   210  stm32f10x_usart.o(i.USART_Init)
    USART_ReceiveData                        0x08002611   Thumb Code    10  stm32f10x_usart.o(i.USART_ReceiveData)
    USART_SendData                           0x0800261b   Thumb Code     8  stm32f10x_usart.o(i.USART_SendData)
    UsageFault_Handler                       0x08002623   Thumb Code     4  stm32f10x_it.o(i.UsageFault_Handler)
    _is_digit                                0x08002627   Thumb Code    14  __printf_wp.o(i._is_digit)
    _sys_exit                                0x08002635   Thumb Code     4  usart3.o(i._sys_exit)
    closedoor                                0x08002639   Thumb Code    24  protocol485.o(i.closedoor)
    dealRecvUpperData                        0x08002655   Thumb Code   146  protocol485.o(i.dealRecvUpperData)
    delay_init                               0x08002725   Thumb Code    76  delay.o(i.delay_init)
    delay_osschedlock                        0x08002781   Thumb Code     8  delay.o(i.delay_osschedlock)
    delay_osschedunlock                      0x08002789   Thumb Code     8  delay.o(i.delay_osschedunlock)
    delay_us                                 0x08002791   Thumb Code    86  delay.o(i.delay_us)
    event_task                               0x080027ed   Thumb Code   168  main.o(i.event_task)
    flash_read                               0x080028a1   Thumb Code   176  bsp_spi_flash.o(i.flash_read)
    flash_write                              0x080029a9   Thumb Code   118  bsp_spi_flash.o(i.flash_write)
    fputc                                    0x08002a61   Thumb Code    24  usart3.o(i.fputc)
    getDustSettings                          0x08002a7d   Thumb Code     4  protocol485.o(i.getDustSettings)
    getMaopiWeight                           0x08002a85   Thumb Code    32  hx711.o(i.getMaopiWeight)
    getOverState                             0x08002ab9   Thumb Code    50  protocol485.o(i.getOverState)
    getUart1RecvData                         0x08002b01   Thumb Code     4  usart1.o(i.getUart1RecvData)
    main                                     0x08002b09   Thumb Code    74  main.o(i.main)
    openDoorFromMast                         0x08002b5d   Thumb Code    74  protocol485.o(i.openDoorFromMast)
    opendoor                                 0x08002bed   Thumb Code    66  protocol485.o(i.opendoor)
    paramInit                                0x08002c39   Thumb Code    40  protocol485.o(i.paramInit)
    pinInit                                  0x08002c6d   Thumb Code   386  main.o(i.pinInit)
    protocol485_task                         0x08002e41   Thumb Code   178  main.o(i.protocol485_task)
    recvData_485                             0x08002f41   Thumb Code   138  protocol485.o(i.recvData_485)
    revObjectData                            0x08002fcd   Thumb Code   158  protocol485.o(i.revObjectData)
    sendOnceEventData                        0x080030bd   Thumb Code   154  protocol485.o(i.sendOnceEventData)
    sendRealData                             0x08003157   Thumb Code   158  protocol485.o(i.sendRealData)
    start_task                               0x080031f5   Thumb Code    86  main.o(i.start_task)
    uart1_init                               0x08003269   Thumb Code   184  usart1.o(i.uart1_init)
    uart2_init                               0x08003331   Thumb Code   198  usart2.o(i.uart2_init)
    uart3_init                               0x08003401   Thumb Code   182  usart3.o(i.uart3_init)
    __fpl_dretinf                            0x080034c5   Thumb Code    12  dretinf.o(x$fpl$dretinf)
    __aeabi_f2d                              0x080034d1   Thumb Code     0  f2d.o(x$fpl$f2d)
    _f2d                                     0x080034d1   Thumb Code    86  f2d.o(x$fpl$f2d)
    __fpl_fcmp_Inf                           0x08003527   Thumb Code    24  fcmpi.o(x$fpl$fcmpinf)
    __aeabi_fdiv                             0x08003541   Thumb Code     0  fdiv.o(x$fpl$fdiv)
    _fdiv                                    0x08003541   Thumb Code   384  fdiv.o(x$fpl$fdiv)
    __aeabi_cfcmpeq                          0x080036c5   Thumb Code     0  feqf.o(x$fpl$feqf)
    _fcmpeq                                  0x080036c5   Thumb Code   104  feqf.o(x$fpl$feqf)
    __aeabi_f2iz                             0x0800372d   Thumb Code     0  ffix.o(x$fpl$ffix)
    _ffix                                    0x0800372d   Thumb Code    54  ffix.o(x$fpl$ffix)
    __aeabi_f2uiz                            0x08003765   Thumb Code     0  ffixu.o(x$fpl$ffixu)
    _ffixu                                   0x08003765   Thumb Code    62  ffixu.o(x$fpl$ffixu)
    __aeabi_i2f                              0x080037a5   Thumb Code     0  fflt_clz.o(x$fpl$fflt)
    _fflt                                    0x080037a5   Thumb Code    48  fflt_clz.o(x$fpl$fflt)
    __aeabi_ui2f                             0x080037d5   Thumb Code     0  fflt_clz.o(x$fpl$ffltu)
    _ffltu                                   0x080037d5   Thumb Code    38  fflt_clz.o(x$fpl$ffltu)
    __fpl_fnaninf                            0x080037fb   Thumb Code   140  fnaninf.o(x$fpl$fnaninf)
    __fpl_fretinf                            0x08003887   Thumb Code    10  fretinf.o(x$fpl$fretinf)
    OSUnMapTbl                               0x08003890   Data         256  os_core.o(.constdata)
    __I$use$fp                               0x08003890   Number         0  usenofp.o(x$fpl$usenofp)
    Region$$Table$$Base                      0x080039a4   Number         0  anon$$obj.o(Region$$Table)
    Region$$Table$$Limit                     0x080039c4   Number         0  anon$$obj.o(Region$$Table)
    USART1_RX_STA                            0x20000000   Data           2  usart1.o(.data)
    usart2RecvFlag                           0x20000002   Data           1  usart2.o(.data)
    USART2_RX_STA                            0x20000004   Data           2  usart2.o(.data)
    __stdout                                 0x20000008   Data           4  usart3.o(.data)
    USART3_RX_STA                            0x2000000c   Data           2  usart3.o(.data)
    Tx_Buffer                                0x20000014   Data          33  bsp_spi_flash.o(.data)
    cal_flag                                 0x20000035   Data           1  bsp_spi_flash.o(.data)
    DeviceID                                 0x20000038   Data           4  bsp_spi_flash.o(.data)
    FlashID                                  0x2000003c   Data           4  bsp_spi_flash.o(.data)
    auchCRCHi                                0x20000040   Data         256  protocol485.o(.data)
    auchCRCLo                                0x20000140   Data         256  protocol485.o(.data)
    SystemCoreClock                          0x20000244   Data           4  system_stm32f10x.o(.data)
    AHBPrescTable                            0x20000248   Data          16  system_stm32f10x.o(.data)
    OSCtxSwCtr                               0x2000026c   Data           4  os_core.o(.data)
    OSEventFreeList                          0x20000270   Data           4  os_core.o(.data)
    OSFlagFreeList                           0x20000274   Data           4  os_core.o(.data)
    OSCPUUsage                               0x20000278   Data           1  os_core.o(.data)
    OSIdleCtrMax                             0x2000027c   Data           4  os_core.o(.data)
    OSIdleCtrRun                             0x20000280   Data           4  os_core.o(.data)
    OSStatRdy                                0x20000284   Data           1  os_core.o(.data)
    OSIntNesting                             0x20000285   Data           1  os_core.o(.data)
    OSLockNesting                            0x20000286   Data           1  os_core.o(.data)
    OSPrioCur                                0x20000287   Data           1  os_core.o(.data)
    OSPrioHighRdy                            0x20000288   Data           1  os_core.o(.data)
    OSRdyGrp                                 0x20000289   Data           1  os_core.o(.data)
    OSRdyTbl                                 0x2000028a   Data           8  os_core.o(.data)
    OSRunning                                0x20000292   Data           1  os_core.o(.data)
    OSTaskCtr                                0x20000293   Data           1  os_core.o(.data)
    OSIdleCtr                                0x20000294   Data           4  os_core.o(.data)
    OSTCBCur                                 0x20000298   Data           4  os_core.o(.data)
    OSTCBFreeList                            0x2000029c   Data           4  os_core.o(.data)
    OSTCBHighRdy                             0x200002a0   Data           4  os_core.o(.data)
    OSTCBList                                0x200002a4   Data           4  os_core.o(.data)
    OSTickStepState                          0x200002a8   Data           1  os_core.o(.data)
    OSQFreeList                              0x200002ac   Data           4  os_core.o(.data)
    OSTime                                   0x200002b0   Data           4  os_core.o(.data)
    start_task_stk                           0x200002c0   Data         400  main.o(.bss)
    protocol485_task_stk                     0x20000450   Data        1024  main.o(.bss)
    eventtask_stk                            0x20000850   Data         400  main.o(.bss)
    USART1_RX_BUF                            0x200009e0   Data         512  usart1.o(.bss)
    USART2_RX_BUF                            0x20000de1   Data         256  usart2.o(.bss)
    USART2_TX_BUF                            0x20000ee1   Data         200  usart2.o(.bss)
    USART3_RX_BUF                            0x20000fa9   Data         512  usart3.o(.bss)
    USART3_TX_BUF                            0x200011a9   Data         200  usart3.o(.bss)
    dustsettings                             0x20001274   Data          44  protocol485.o(.bss)
    OSEventTbl                               0x200012a0   Data         200  os_core.o(.bss)
    OSFlagTbl                                0x20001368   Data          80  os_core.o(.bss)
    OSTaskStatStk                            0x200013b8   Data         512  os_core.o(.bss)
    OSTaskIdleStk                            0x200015b8   Data         512  os_core.o(.bss)
    OSTCBPrioTbl                             0x200017b8   Data         256  os_core.o(.bss)
    OSTCBTbl                                 0x200018b8   Data        1008  os_core.o(.bss)
    OSQTbl                                   0x20001ca8   Data         120  os_core.o(.bss)
    __libspace_start                         0x20001d20   Data          96  libspace.o(.bss)
    __temporary_stack_top$libspace           0x20001d80   Data           0  libspace.o(.bss)



==============================================================================

Memory Map of the image

  Image Entry point : 0x08000215

  Load Region LR_1 (Base: 0x08000000, Size: 0x00003c78, Max: 0xffffffff, ABSOLUTE, COMPRESSED[0x00003b28])

    Execution Region ER_RO (Base: 0x08000000, Size: 0x000039c4, Max: 0xffffffff, ABSOLUTE)

    Base Addr    Size         Type   Attr      Idx    E Section Name        Object

    0x08000000   0x00000130   Data   RO          872    RESET               startup_stm32f10x_hd.o
    0x08000130   0x00000008   Code   RO         4618  * !!!main             c_w.l(__main.o)
    0x08000138   0x00000034   Code   RO         4951    !!!scatter          c_w.l(__scatter.o)
    0x0800016c   0x0000005a   Code   RO         4949    !!dczerorl2         c_w.l(__dczerorl2.o)
    0x080001c6   0x00000002   PAD
    0x080001c8   0x0000001c   Code   RO         4953    !!handler_zi        c_w.l(__scatter_zi.o)
    0x080001e4   0x00000000   Code   RO         4607    .ARM.Collect$$_printf_percent$$00000000  c_w.l(_printf_percent.o)
    0x080001e4   0x00000006   Code   RO         4606    .ARM.Collect$$_printf_percent$$00000009  c_w.l(_printf_d.o)
    0x080001ea   0x00000004   Code   RO         4705    .ARM.Collect$$_printf_percent$$00000017  c_w.l(_printf_percent_end.o)
    0x080001ee   0x00000002   Code   RO         4814    .ARM.Collect$$libinit$$00000000  c_w.l(libinit.o)
    0x080001f0   0x00000000   Code   RO         4830    .ARM.Collect$$libinit$$00000002  c_w.l(libinit2.o)
    0x080001f0   0x00000000   Code   RO         4832    .ARM.Collect$$libinit$$00000004  c_w.l(libinit2.o)
    0x080001f0   0x00000000   Code   RO         4835    .ARM.Collect$$libinit$$0000000A  c_w.l(libinit2.o)
    0x080001f0   0x00000000   Code   RO         4837    .ARM.Collect$$libinit$$0000000C  c_w.l(libinit2.o)
    0x080001f0   0x00000000   Code   RO         4839    .ARM.Collect$$libinit$$0000000E  c_w.l(libinit2.o)
    0x080001f0   0x00000000   Code   RO         4842    .ARM.Collect$$libinit$$00000011  c_w.l(libinit2.o)
    0x080001f0   0x00000000   Code   RO         4844    .ARM.Collect$$libinit$$00000013  c_w.l(libinit2.o)
    0x080001f0   0x00000000   Code   RO         4846    .ARM.Collect$$libinit$$00000015  c_w.l(libinit2.o)
    0x080001f0   0x00000000   Code   RO         4848    .ARM.Collect$$libinit$$00000017  c_w.l(libinit2.o)
    0x080001f0   0x00000000   Code   RO         4850    .ARM.Collect$$libinit$$00000019  c_w.l(libinit2.o)
    0x080001f0   0x00000000   Code   RO         4852    .ARM.Collect$$libinit$$0000001B  c_w.l(libinit2.o)
    0x080001f0   0x00000000   Code   RO         4854    .ARM.Collect$$libinit$$0000001D  c_w.l(libinit2.o)
    0x080001f0   0x00000000   Code   RO         4856    .ARM.Collect$$libinit$$0000001F  c_w.l(libinit2.o)
    0x080001f0   0x00000000   Code   RO         4858    .ARM.Collect$$libinit$$00000021  c_w.l(libinit2.o)
    0x080001f0   0x00000000   Code   RO         4860    .ARM.Collect$$libinit$$00000023  c_w.l(libinit2.o)
    0x080001f0   0x00000000   Code   RO         4862    .ARM.Collect$$libinit$$00000025  c_w.l(libinit2.o)
    0x080001f0   0x00000000   Code   RO         4866    .ARM.Collect$$libinit$$0000002C  c_w.l(libinit2.o)
    0x080001f0   0x00000000   Code   RO         4868    .ARM.Collect$$libinit$$0000002E  c_w.l(libinit2.o)
    0x080001f0   0x00000000   Code   RO         4870    .ARM.Collect$$libinit$$00000030  c_w.l(libinit2.o)
    0x080001f0   0x00000000   Code   RO         4872    .ARM.Collect$$libinit$$00000032  c_w.l(libinit2.o)
    0x080001f0   0x00000002   Code   RO         4873    .ARM.Collect$$libinit$$00000033  c_w.l(libinit2.o)
    0x080001f2   0x00000002   Code   RO         4891    .ARM.Collect$$libshutdown$$00000000  c_w.l(libshutdown.o)
    0x080001f4   0x00000000   Code   RO         4901    .ARM.Collect$$libshutdown$$00000002  c_w.l(libshutdown2.o)
    0x080001f4   0x00000000   Code   RO         4903    .ARM.Collect$$libshutdown$$00000004  c_w.l(libshutdown2.o)
    0x080001f4   0x00000000   Code   RO         4906    .ARM.Collect$$libshutdown$$00000007  c_w.l(libshutdown2.o)
    0x080001f4   0x00000000   Code   RO         4909    .ARM.Collect$$libshutdown$$0000000A  c_w.l(libshutdown2.o)
    0x080001f4   0x00000000   Code   RO         4911    .ARM.Collect$$libshutdown$$0000000C  c_w.l(libshutdown2.o)
    0x080001f4   0x00000000   Code   RO         4914    .ARM.Collect$$libshutdown$$0000000F  c_w.l(libshutdown2.o)
    0x080001f4   0x00000002   Code   RO         4915    .ARM.Collect$$libshutdown$$00000010  c_w.l(libshutdown2.o)
    0x080001f6   0x00000000   Code   RO         4644    .ARM.Collect$$rtentry$$00000000  c_w.l(__rtentry.o)
    0x080001f6   0x00000000   Code   RO         4735    .ARM.Collect$$rtentry$$00000002  c_w.l(__rtentry2.o)
    0x080001f6   0x00000006   Code   RO         4747    .ARM.Collect$$rtentry$$00000004  c_w.l(__rtentry4.o)
    0x080001fc   0x00000000   Code   RO         4737    .ARM.Collect$$rtentry$$00000009  c_w.l(__rtentry2.o)
    0x080001fc   0x00000004   Code   RO         4738    .ARM.Collect$$rtentry$$0000000A  c_w.l(__rtentry2.o)
    0x08000200   0x00000000   Code   RO         4740    .ARM.Collect$$rtentry$$0000000C  c_w.l(__rtentry2.o)
    0x08000200   0x00000008   Code   RO         4741    .ARM.Collect$$rtentry$$0000000D  c_w.l(__rtentry2.o)
    0x08000208   0x00000002   Code   RO         4822    .ARM.Collect$$rtexit$$00000000  c_w.l(rtexit.o)
    0x0800020a   0x00000000   Code   RO         4875    .ARM.Collect$$rtexit$$00000002  c_w.l(rtexit2.o)
    0x0800020a   0x00000004   Code   RO         4876    .ARM.Collect$$rtexit$$00000003  c_w.l(rtexit2.o)
    0x0800020e   0x00000006   Code   RO         4877    .ARM.Collect$$rtexit$$00000004  c_w.l(rtexit2.o)
    0x08000214   0x00000040   Code   RO          873  * .text               startup_stm32f10x_hd.o
    0x08000254   0x000000b4   Code   RO         4569    .text               os_cpu_a.o
    0x08000308   0x00000002   Code   RO         4574    .text               c_w.l(use_no_semi_2.o)
    0x0800030a   0x00000002   PAD
    0x0800030c   0x00000018   Code   RO         4578    .text               c_w.l(__2printf.o)
    0x08000324   0x00000078   Code   RO         4584    .text               c_w.l(_printf_dec.o)
    0x0800039c   0x00000188   Code   RO         4603    .text               c_w.l(__printf_flags_ss_wp.o)
    0x08000524   0x0000008a   Code   RO         4610    .text               c_w.l(rt_memcpy_v6.o)
    0x080005ae   0x00000044   Code   RO         4612    .text               c_w.l(rt_memclr.o)
    0x080005f2   0x0000004e   Code   RO         4614    .text               c_w.l(rt_memclr_w.o)
    0x08000640   0x00000006   Code   RO         4616    .text               c_w.l(heapauxi.o)
    0x08000646   0x00000002   Code   RO         4642    .text               c_w.l(use_no_semi.o)
    0x08000648   0x000000b2   Code   RO         4651    .text               c_w.l(_printf_intcommon.o)
    0x080006fa   0x00000002   PAD
    0x080006fc   0x00000030   Code   RO         4655    .text               c_w.l(_printf_char_common.o)
    0x0800072c   0x00000024   Code   RO         4659    .text               c_w.l(_printf_char_file.o)
    0x08000750   0x00000064   Code   RO         4715    .text               c_w.l(rt_memcpy_w.o)
    0x080007b4   0x00000008   Code   RO         4762    .text               c_w.l(ferror.o)
    0x080007bc   0x0000004a   Code   RO         4768    .text               c_w.l(sys_stackheap_outer.o)
    0x08000806   0x00000012   Code   RO         4807    .text               c_w.l(exit.o)
    0x08000818   0x00000008   Code   RO         4819    .text               c_w.l(libspace.o)
    0x08000820   0x00000004   Code   RO          785    i.BusFault_Handler  stm32f10x_it.o
    0x08000824   0x00000038   Code   RO          601    i.CalculateCrc16    protocol485.o
    0x0800085c   0x00000002   Code   RO          786    i.DebugMon_Handler  stm32f10x_it.o
    0x0800085e   0x00000116   Code   RO          943    i.GPIO_Init         stm32f10x_gpio.o
    0x08000974   0x00000012   Code   RO          947    i.GPIO_ReadInputDataBit  stm32f10x_gpio.o
    0x08000986   0x00000004   Code   RO          950    i.GPIO_ResetBits    stm32f10x_gpio.o
    0x0800098a   0x00000004   Code   RO          951    i.GPIO_SetBits      stm32f10x_gpio.o
    0x0800098e   0x00000002   PAD
    0x08000990   0x000000a0   Code   RO          369    i.Get_Weight        hx711.o
    0x08000a30   0x000000e8   Code   RO          370    i.HX711_Read        hx711.o
    0x08000b18   0x00000004   Code   RO          787    i.HardFault_Handler  stm32f10x_it.o
    0x08000b1c   0x00000050   Code   RO          371    i.Init_HX711pin     hx711.o
    0x08000b6c   0x0000004c   Code   RO          201    i.LED_Init          led.o
    0x08000bb8   0x00000004   Code   RO          788    i.MemManage_Handler  stm32f10x_it.o
    0x08000bbc   0x00000002   Code   RO          789    i.NMI_Handler       stm32f10x_it.o
    0x08000bbe   0x00000002   PAD
    0x08000bc0   0x00000070   Code   RO          877    i.NVIC_Init         misc.o
    0x08000c30   0x00000014   Code   RO          878    i.NVIC_PriorityGroupConfig  misc.o
    0x08000c44   0x0000002c   Code   RO         3844    i.OSInit            os_core.o
    0x08000c70   0x00000002   Code   RO         4478    i.OSInitHookBegin   os_cpu_c.o
    0x08000c72   0x00000002   Code   RO         4479    i.OSInitHookEnd     os_cpu_c.o
    0x08000c74   0x00000024   Code   RO         3845    i.OSIntEnter        os_core.o
    0x08000c98   0x00000090   Code   RO         3846    i.OSIntExit         os_core.o
    0x08000d28   0x00000040   Code   RO         3847    i.OSSchedLock       os_core.o
    0x08000d68   0x00000060   Code   RO         3848    i.OSSchedUnlock     os_core.o
    0x08000dc8   0x00000048   Code   RO         3849    i.OSStart           os_core.o
    0x08000e10   0x00000002   Code   RO         4480    i.OSTCBInitHook     os_cpu_c.o
    0x08000e12   0x00000002   PAD
    0x08000e14   0x000000a0   Code   RO         4341    i.OSTaskCreate      os_task.o
    0x08000eb4   0x000000b8   Code   RO         4342    i.OSTaskCreateExt   os_task.o
    0x08000f6c   0x00000002   Code   RO         4481    i.OSTaskCreateHook  os_cpu_c.o
    0x08000f6e   0x00000002   Code   RO         4483    i.OSTaskIdleHook    os_cpu_c.o
    0x08000f70   0x00000070   Code   RO         4346    i.OSTaskNameSet     os_task.o
    0x08000fe0   0x00000002   Code   RO         4485    i.OSTaskStatHook    os_cpu_c.o
    0x08000fe2   0x00000002   PAD
    0x08000fe4   0x0000008c   Code   RO         4351    i.OSTaskStkChk      os_task.o
    0x08001070   0x0000009a   Code   RO         4486    i.OSTaskStkInit     os_cpu_c.o
    0x0800110a   0x00000002   PAD
    0x0800110c   0x000000a8   Code   RO         4352    i.OSTaskSuspend     os_task.o
    0x080011b4   0x00000002   Code   RO         4487    i.OSTaskSwHook      os_cpu_c.o
    0x080011b6   0x00000002   PAD
    0x080011b8   0x00000078   Code   RO         4436    i.OSTimeDly         os_time.o
    0x08001230   0x00000060   Code   RO         4437    i.OSTimeDlyHMSM     os_time.o
    0x08001290   0x000000ec   Code   RO         3851    i.OSTimeTick        os_core.o
    0x0800137c   0x00000002   Code   RO         4488    i.OSTimeTickHook    os_cpu_c.o
    0x0800137e   0x00000002   PAD
    0x08001380   0x00000058   Code   RO         4035    i.OS_FlagInit       os_flag.o
    0x080013d8   0x00000054   Code   RO         3858    i.OS_InitEventList  os_core.o
    0x0800142c   0x00000054   Code   RO         3859    i.OS_InitMisc       os_core.o
    0x08001480   0x00000044   Code   RO         3860    i.OS_InitRdyList    os_core.o
    0x080014c4   0x00000080   Code   RO         3861    i.OS_InitTCBList    os_core.o
    0x08001544   0x00000050   Code   RO         3862    i.OS_InitTaskIdle   os_core.o
    0x08001594   0x00000050   Code   RO         3863    i.OS_InitTaskStat   os_core.o
    0x080015e4   0x00000012   Code   RO         3864    i.OS_MemClr         os_core.o
    0x080015f6   0x00000002   PAD
    0x080015f8   0x00000050   Code   RO         4224    i.OS_QInit          os_q.o
    0x08001648   0x00000074   Code   RO         3866    i.OS_Sched          os_core.o
    0x080016bc   0x0000002c   Code   RO         3867    i.OS_SchedNew       os_core.o
    0x080016e8   0x00000134   Code   RO         3869    i.OS_TCBInit        os_core.o
    0x0800181c   0x00000028   Code   RO         3870    i.OS_TaskIdle       os_core.o
    0x08001844   0x00000088   Code   RO         3871    i.OS_TaskStat       os_core.o
    0x080018cc   0x0000003c   Code   RO         3872    i.OS_TaskStatStkChk  os_core.o
    0x08001908   0x0000001a   Code   RO         4354    i.OS_TaskStkClr     os_task.o
    0x08001922   0x00000002   PAD
    0x08001924   0x00000020   Code   RO         1257    i.RCC_APB1PeriphClockCmd  stm32f10x_rcc.o
    0x08001944   0x00000020   Code   RO         1258    i.RCC_APB1PeriphResetCmd  stm32f10x_rcc.o
    0x08001964   0x00000020   Code   RO         1259    i.RCC_APB2PeriphClockCmd  stm32f10x_rcc.o
    0x08001984   0x00000020   Code   RO         1260    i.RCC_APB2PeriphResetCmd  stm32f10x_rcc.o
    0x080019a4   0x000000d4   Code   RO         1267    i.RCC_GetClocksFreq  stm32f10x_rcc.o
    0x08001a78   0x00000050   Code   RO          266    i.RS485_Send_Data   usart2.o
    0x08001ac8   0x00000018   Code   RO         3103    i.SPI_Cmd           stm32f10x_spi.o
    0x08001ae0   0x00000050   Code   RO          439    i.SPI_FLASH_BufferRead  bsp_spi_flash.o
    0x08001b30   0x00000122   Code   RO          440    i.SPI_FLASH_BufferWrite  bsp_spi_flash.o
    0x08001c52   0x00000002   PAD
    0x08001c54   0x000000bc   Code   RO          442    i.SPI_FLASH_Init    bsp_spi_flash.o
    0x08001d10   0x0000009c   Code   RO          443    i.SPI_FLASH_PageWrite  bsp_spi_flash.o
    0x08001dac   0x0000003c   Code   RO          445    i.SPI_FLASH_ReadDeviceID  bsp_spi_flash.o
    0x08001de8   0x00000050   Code   RO          446    i.SPI_FLASH_ReadID  bsp_spi_flash.o
    0x08001e38   0x00000044   Code   RO          447    i.SPI_FLASH_SectorErase  bsp_spi_flash.o
    0x08001e7c   0x00000078   Code   RO          448    i.SPI_FLASH_SendByte  bsp_spi_flash.o
    0x08001ef4   0x00000034   Code   RO          451    i.SPI_FLASH_WaitForWriteEnd  bsp_spi_flash.o
    0x08001f28   0x00000020   Code   RO          452    i.SPI_FLASH_WriteEnable  bsp_spi_flash.o
    0x08001f48   0x00000020   Code   RO          453    i.SPI_Flash_PowerDown  bsp_spi_flash.o
    0x08001f68   0x00000020   Code   RO          454    i.SPI_Flash_WAKEUP  bsp_spi_flash.o
    0x08001f88   0x00000012   Code   RO         3111    i.SPI_I2S_GetFlagStatus  stm32f10x_spi.o
    0x08001f9a   0x00000006   Code   RO         3114    i.SPI_I2S_ReceiveData  stm32f10x_spi.o
    0x08001fa0   0x00000004   Code   RO         3115    i.SPI_I2S_SendData  stm32f10x_spi.o
    0x08001fa4   0x0000003c   Code   RO         3116    i.SPI_Init          stm32f10x_spi.o
    0x08001fe0   0x00000040   Code   RO          455    i.SPI_TIMEOUT_UserCallback  bsp_spi_flash.o
    0x08002020   0x00000002   Code   RO          790    i.SVC_Handler       stm32f10x_it.o
    0x08002022   0x0000006e   Code   RO          602    i.SendComResponder  protocol485.o
    0x08002090   0x00000008   Code   RO          836    i.SetSysClock       system_stm32f10x.o
    0x08002098   0x000000e0   Code   RO          837    i.SetSysClockTo72   system_stm32f10x.o
    0x08002178   0x00000028   Code   RO          881    i.SysTick_CLKSourceConfig  misc.o
    0x080021a0   0x0000001c   Code   RO          696    i.SysTick_Handler   delay.o
    0x080021bc   0x00000060   Code   RO          839    i.SystemInit        system_stm32f10x.o
    0x0800221c   0x000000a0   Code   RO          213    i.USART1_IRQHandler  usart1.o
    0x080022bc   0x00000084   Code   RO          267    i.USART2_IRQHandler  usart2.o
    0x08002340   0x0000006c   Code   RO          328    i.USART3_IRQHandler  usart3.o
    0x080023ac   0x0000001e   Code   RO         1546    i.USART_ClearITPendingBit  stm32f10x_usart.o
    0x080023ca   0x00000018   Code   RO         1549    i.USART_Cmd         stm32f10x_usart.o
    0x080023e2   0x00000002   PAD
    0x080023e4   0x0000009c   Code   RO         1551    i.USART_DeInit      stm32f10x_usart.o
    0x08002480   0x0000001a   Code   RO         1552    i.USART_GetFlagStatus  stm32f10x_usart.o
    0x0800249a   0x00000054   Code   RO         1553    i.USART_GetITStatus  stm32f10x_usart.o
    0x080024ee   0x0000004a   Code   RO         1555    i.USART_ITConfig    stm32f10x_usart.o
    0x08002538   0x000000d8   Code   RO         1556    i.USART_Init        stm32f10x_usart.o
    0x08002610   0x0000000a   Code   RO         1563    i.USART_ReceiveData  stm32f10x_usart.o
    0x0800261a   0x00000008   Code   RO         1566    i.USART_SendData    stm32f10x_usart.o
    0x08002622   0x00000004   Code   RO          791    i.UsageFault_Handler  stm32f10x_it.o
    0x08002626   0x0000000e   Code   RO         4596    i._is_digit         c_w.l(__printf_wp.o)
    0x08002634   0x00000004   Code   RO          329    i._sys_exit         usart3.o
    0x08002638   0x0000001c   Code   RO          603    i.closedoor         protocol485.o
    0x08002654   0x000000d0   Code   RO          604    i.dealRecvUpperData  protocol485.o
    0x08002724   0x0000005c   Code   RO          697    i.delay_init        delay.o
    0x08002780   0x00000008   Code   RO          699    i.delay_osschedlock  delay.o
    0x08002788   0x00000008   Code   RO          700    i.delay_osschedunlock  delay.o
    0x08002790   0x0000005c   Code   RO          702    i.delay_us          delay.o
    0x080027ec   0x000000b4   Code   RO            1    i.event_task        main.o
    0x080028a0   0x00000108   Code   RO          456    i.flash_read        bsp_spi_flash.o
    0x080029a8   0x000000b8   Code   RO          457    i.flash_write       bsp_spi_flash.o
    0x08002a60   0x0000001c   Code   RO          330    i.fputc             usart3.o
    0x08002a7c   0x00000008   Code   RO          605    i.getDustSettings   protocol485.o
    0x08002a84   0x00000034   Code   RO          372    i.getMaopiWeight    hx711.o
    0x08002ab8   0x00000048   Code   RO          606    i.getOverState      protocol485.o
    0x08002b00   0x00000008   Code   RO          214    i.getUart1RecvData  usart1.o
    0x08002b08   0x00000054   Code   RO            2    i.main              main.o
    0x08002b5c   0x00000090   Code   RO          607    i.openDoorFromMast  protocol485.o
    0x08002bec   0x0000004c   Code   RO          608    i.opendoor          protocol485.o
    0x08002c38   0x00000034   Code   RO          609    i.paramInit         protocol485.o
    0x08002c6c   0x000001d4   Code   RO            3    i.pinInit           main.o
    0x08002e40   0x00000100   Code   RO            4    i.protocol485_task  main.o
    0x08002f40   0x0000008a   Code   RO          610    i.recvData_485      protocol485.o
    0x08002fca   0x00000002   PAD
    0x08002fcc   0x000000f0   Code   RO          611    i.revObjectData     protocol485.o
    0x080030bc   0x0000009a   Code   RO          612    i.sendOnceEventData  protocol485.o
    0x08003156   0x0000009e   Code   RO          613    i.sendRealData      protocol485.o
    0x080031f4   0x00000074   Code   RO            5    i.start_task        main.o
    0x08003268   0x000000c8   Code   RO          217    i.uart1_init        usart1.o
    0x08003330   0x000000d0   Code   RO          271    i.uart2_init        usart2.o
    0x08003400   0x000000c4   Code   RO          331    i.uart3_init        usart3.o
    0x080034c4   0x0000000c   Code   RO         4717    x$fpl$dretinf       fz_ws.l(dretinf.o)
    0x080034d0   0x00000056   Code   RO         4620    x$fpl$f2d           fz_ws.l(f2d.o)
    0x08003526   0x00000018   Code   RO         4719    x$fpl$fcmpinf       fz_ws.l(fcmpi.o)
    0x0800353e   0x00000002   PAD
    0x08003540   0x00000184   Code   RO         4623    x$fpl$fdiv          fz_ws.l(fdiv.o)
    0x080036c4   0x00000068   Code   RO         4626    x$fpl$feqf          fz_ws.l(feqf.o)
    0x0800372c   0x00000036   Code   RO         4628    x$fpl$ffix          fz_ws.l(ffix.o)
    0x08003762   0x00000002   PAD
    0x08003764   0x0000003e   Code   RO         4632    x$fpl$ffixu         fz_ws.l(ffixu.o)
    0x080037a2   0x00000002   PAD
    0x080037a4   0x00000030   Code   RO         4637    x$fpl$fflt          fz_ws.l(fflt_clz.o)
    0x080037d4   0x00000026   Code   RO         4636    x$fpl$ffltu         fz_ws.l(fflt_clz.o)
    0x080037fa   0x0000008c   Code   RO         4721    x$fpl$fnaninf       fz_ws.l(fnaninf.o)
    0x08003886   0x0000000a   Code   RO         4723    x$fpl$fretinf       fz_ws.l(fretinf.o)
    0x08003890   0x00000000   Code   RO         4733    x$fpl$usenofp       fz_ws.l(usenofp.o)
    0x08003890   0x00000100   Data   RO         3874    .constdata          os_core.o
    0x08003990   0x00000011   Data   RO         4604    .constdata          c_w.l(__printf_flags_ss_wp.o)
    0x080039a1   0x00000003   PAD
    0x080039a4   0x00000020   Data   RO         4947    Region$$Table       anon$$obj.o


    Execution Region ER_RW (Base: 0x20000000, Size: 0x000002b4, Max: 0xffffffff, ABSOLUTE, COMPRESSED[0x00000164])

    Base Addr    Size         Type   Attr      Idx    E Section Name        Object

    0x20000000   0x00000002   Data   RW          219    .data               usart1.o
    0x20000002   0x00000004   Data   RW          274    .data               usart2.o
    0x20000006   0x00000002   PAD
    0x20000008   0x00000006   Data   RW          333    .data               usart3.o
    0x2000000e   0x00000002   PAD
    0x20000010   0x00000030   Data   RW          458    .data               bsp_spi_flash.o
    0x20000040   0x00000200   Data   RW          615    .data               protocol485.o
    0x20000240   0x00000004   Data   RW          703    .data               delay.o
    0x20000244   0x00000014   Data   RW          840    .data               system_stm32f10x.o
    0x20000258   0x00000014   Data   RW         1287    .data               stm32f10x_rcc.o
    0x2000026c   0x00000048   Data   RW         3875    .data               os_core.o


    Execution Region ER_ZI (Base: 0x200002b4, Size: 0x000020cc, Max: 0xffffffff, ABSOLUTE)

    Base Addr    Size         Type   Attr      Idx    E Section Name        Object

    0x200002b4   0x0000000c   PAD
    0x200002c0   0x00000720   Zero   RW            6    .bss                main.o
    0x200009e0   0x00000401   Zero   RW          218    .bss                usart1.o
    0x20000de1   0x000001c8   Zero   RW          273    .bss                usart2.o
    0x20000fa9   0x000002c8   Zero   RW          332    .bss                usart3.o
    0x20001271   0x00000003   PAD
    0x20001274   0x0000002c   Zero   RW          614    .bss                protocol485.o
    0x200012a0   0x00000a80   Zero   RW         3873    .bss                os_core.o
    0x20001d20   0x00000060   Zero   RW         4820    .bss                c_w.l(libspace.o)
    0x20001d80   0x00000200   Zero   RW          871    HEAP                startup_stm32f10x_hd.o
    0x20001f80   0x00000400   Zero   RW          870    STACK               startup_stm32f10x_hd.o


==============================================================================

Image component sizes


      Code (inc. data)   RO Data    RW Data    ZI Data      Debug   Object Name

      1702        324          0         48          0      10528   bsp_spi_flash.o
       228         26          0          4          0       2656   delay.o
       524        104          0          0          0       2363   hx711.o
        76          8          0          0          0        487   led.o
      1104        212          0          0       1824     252159   main.o
       172         22          0          0          0       2001   misc.o
      1938        382        256         72       2688      18799   os_core.o
       180         36          0          0          0        324   os_cpu_a.o
       170          0          0          0          0      12599   os_cpu_c.o
        88         14          0          0          0        574   os_flag.o
        80          8          0          0          0        547   os_q.o
       790         64          0          0          0       5304   os_task.o
       216         30          0          0          0       1364   os_time.o
      1444        276          0        512         44       9720   protocol485.o
        64         26        304          0       1536        788   startup_stm32f10x_hd.o
       304          0          0          0          0       3584   stm32f10x_gpio.o
        22          0          0          0          0       2891   stm32f10x_it.o
       340         44          0         20          0       5476   stm32f10x_rcc.o
       112          0          0          0          0       3746   stm32f10x_spi.o
       628         28          0          0          0       7262   stm32f10x_usart.o
         0          0          0          0          0         32   sys.o
       328         28          0         20          0       2093   system_stm32f10x.o
       368         38          0          2       1025       2918   usart1.o
       420         30          0          4        456       2874   usart2.o
       336         32          0          6        712       4277   usart3.o

    ----------------------------------------------------------------------
     11658       1732        592        692       8300     355366   Object Totals
         0          0         32          0          0          0   (incl. Generated)
        24          0          0          4         15          0   (incl. Padding)

    ----------------------------------------------------------------------

      Code (inc. data)   RO Data    RW Data    ZI Data      Debug   Library Member Name

        24          4          0          0          0         84   __2printf.o
        90          0          0          0          0          0   __dczerorl2.o
         8          0          0          0          0         68   __main.o
       392          4         17          0          0         92   __printf_flags_ss_wp.o
        14          0          0          0          0         68   __printf_wp.o
         0          0          0          0          0          0   __rtentry.o
        12          0          0          0          0          0   __rtentry2.o
         6          0          0          0          0          0   __rtentry4.o
        52          8          0          0          0          0   __scatter.o
        28          0          0          0          0          0   __scatter_zi.o
        48          6          0          0          0         96   _printf_char_common.o
        36          4          0          0          0         80   _printf_char_file.o
         6          0          0          0          0          0   _printf_d.o
       120         16          0          0          0         92   _printf_dec.o
       178          0          0          0          0         88   _printf_intcommon.o
         0          0          0          0          0          0   _printf_percent.o
         4          0          0          0          0          0   _printf_percent_end.o
        18          0          0          0          0         80   exit.o
         8          0          0          0          0         68   ferror.o
         6          0          0          0          0        152   heapauxi.o
         2          0          0          0          0          0   libinit.o
         2          0          0          0          0          0   libinit2.o
         2          0          0          0          0          0   libshutdown.o
         2          0          0          0          0          0   libshutdown2.o
         8          4          0          0         96         68   libspace.o
        68          0          0          0          0         68   rt_memclr.o
        78          0          0          0          0         80   rt_memclr_w.o
       138          0          0          0          0         68   rt_memcpy_v6.o
       100          0          0          0          0         80   rt_memcpy_w.o
         2          0          0          0          0          0   rtexit.o
        10          0          0          0          0          0   rtexit2.o
        74          0          0          0          0         80   sys_stackheap_outer.o
         2          0          0          0          0         68   use_no_semi.o
         2          0          0          0          0         68   use_no_semi_2.o
        12          0          0          0          0         68   dretinf.o
        86          4          0          0          0         84   f2d.o
        24          0          0          0          0         68   fcmpi.o
       388         76          0          0          0         96   fdiv.o
       104          4          0          0          0         84   feqf.o
        54          4          0          0          0         84   ffix.o
        62          4          0          0          0         84   ffixu.o
        86          0          0          0          0        136   fflt_clz.o
       140          4          0          0          0         84   fnaninf.o
        10          0          0          0          0         68   fretinf.o
         0          0          0          0          0          0   usenofp.o

    ----------------------------------------------------------------------
      2518        142         20          0         96       2404   Library Totals
        12          0          3          0          0          0   (incl. Padding)

    ----------------------------------------------------------------------

      Code (inc. data)   RO Data    RW Data    ZI Data      Debug   Library Name

      1540         46         17          0         96       1548   c_w.l
       966         96          0          0          0        856   fz_ws.l

    ----------------------------------------------------------------------
      2518        142         20          0         96       2404   Library Totals

    ----------------------------------------------------------------------

==============================================================================


      Code (inc. data)   RO Data    RW Data    ZI Data      Debug   

     14176       1874        612        692       8396     350018   Grand Totals
     14176       1874        612        356       8396     350018   ELF Image Totals (compressed)
     14176       1874        612        356          0          0   ROM Totals

==============================================================================

    Total RO  Size (Code + RO Data)                14788 (  14.44kB)
    Total RW  Size (RW Data + ZI Data)              9088 (   8.88kB)
    Total ROM Size (Code + RO Data + RW Data)      15144 (  14.79kB)

==============================================================================

